{
  "contractName": "Configurator",
  "abi": [
    {
      "constant": false,
      "inputs": [],
      "name": "renounceOwnership",
      "outputs": [],
      "payable": false,
      "stateMutability": "nonpayable",
      "type": "function"
    },
    {
      "constant": true,
      "inputs": [],
      "name": "owner",
      "outputs": [
        {
          "name": "",
          "type": "address"
        }
      ],
      "payable": false,
      "stateMutability": "view",
      "type": "function"
    },
    {
      "constant": true,
      "inputs": [],
      "name": "preITO",
      "outputs": [
        {
          "name": "",
          "type": "address"
        }
      ],
      "payable": false,
      "stateMutability": "view",
      "type": "function"
    },
    {
      "constant": true,
      "inputs": [],
      "name": "ito",
      "outputs": [
        {
          "name": "",
          "type": "address"
        }
      ],
      "payable": false,
      "stateMutability": "view",
      "type": "function"
    },
    {
      "constant": false,
      "inputs": [
        {
          "name": "_newOwner",
          "type": "address"
        }
      ],
      "name": "transferOwnership",
      "outputs": [],
      "payable": false,
      "stateMutability": "nonpayable",
      "type": "function"
    },
    {
      "constant": true,
      "inputs": [],
      "name": "token",
      "outputs": [
        {
          "name": "",
          "type": "address"
        }
      ],
      "payable": false,
      "stateMutability": "view",
      "type": "function"
    },
    {
      "anonymous": false,
      "inputs": [
        {
          "indexed": true,
          "name": "previousOwner",
          "type": "address"
        }
      ],
      "name": "OwnershipRenounced",
      "type": "event"
    },
    {
      "anonymous": false,
      "inputs": [
        {
          "indexed": true,
          "name": "previousOwner",
          "type": "address"
        },
        {
          "indexed": true,
          "name": "newOwner",
          "type": "address"
        }
      ],
      "name": "OwnershipTransferred",
      "type": "event"
    },
    {
      "constant": false,
      "inputs": [],
      "name": "deploy",
      "outputs": [],
      "payable": false,
      "stateMutability": "nonpayable",
      "type": "function"
    }
  ],
  "bytecode": "0x608060405260008054600160a060020a03191633179055614d02806100256000396000f3006080604052600436106100825763ffffffff7c0100000000000000000000000000000000000000000000000000000000600035041663715018a68114610087578063775c300c1461009e5780638da5cb5b146100b35780639f2bc32b146100e4578063e06902fa146100f9578063f2fde38b1461010e578063fc0c546a1461012f575b600080fd5b34801561009357600080fd5b5061009c610144565b005b3480156100aa57600080fd5b5061009c6101b0565b3480156100bf57600080fd5b506100c8611027565b60408051600160a060020a039092168252519081900360200190f35b3480156100f057600080fd5b506100c8611036565b34801561010557600080fd5b506100c8611045565b34801561011a57600080fd5b5061009c600160a060020a0360043516611054565b34801561013b57600080fd5b506100c8611077565b600054600160a060020a0316331461015b57600080fd5b60008054604051600160a060020a03909116917ff8df31144d9c2f0f6b59d69b8b98abd5459d07f2742c4df920b25aae33c6482091a26000805473ffffffffffffffffffffffffffffffffffffffff19169055565b60008054600160a060020a031633146101c857600080fd5b6101d0611103565b604051809103906000f0801580156101ec573d6000803e3d6000fd5b506001805473ffffffffffffffffffffffffffffffffffffffff1916600160a060020a0392909216919091179055610222611113565b604051809103906000f08015801561023e573d6000803e3d6000fd5b506002805473ffffffffffffffffffffffffffffffffffffffff1916600160a060020a039283161790819055604080517fdeaa59df00000000000000000000000000000000000000000000000000000000815273ea15adb66dc92a4bbccc8bf32fd25e2e86a2a77060048201529051919092169163deaa59df91602480830192600092919082900301818387803b1580156102d857600080fd5b505af11580156102ec573d6000803e3d6000fd5b5050600254604080517ff6a03ebf000000000000000000000000000000000000000000000000000000008152635b4a8e8060048201529051600160a060020a03909216935063f6a03ebf925060248082019260009290919082900301818387803b15801561035957600080fd5b505af115801561036d573d6000803e3d6000fd5b5050600254604080517f0f3a9f65000000000000000000000000000000000000000000000000000000008152603060048201529051600160a060020a039092169350630f3a9f65925060248082019260009290919082900301818387803b1580156103d757600080fd5b505af11580156103eb573d6000803e3d6000fd5b5050600254604080517f91b7f5ed000000000000000000000000000000000000000000000000000000008152683a8c02c5ea2de0000060048201529051600160a060020a0390921693506391b7f5ed925060248082019260009290919082900301818387803b15801561045d57600080fd5b505af1158015610471573d6000803e3d6000fd5b5050600254604080517fa34d927000000000000000000000000000000000000000000000000000000000815267016345785d8a000060048201529051600160a060020a03909216935063a34d9270925060248082019260009290919082900301818387803b1580156104e257600080fd5b505af11580156104f6573d6000803e3d6000fd5b5050600254604080517fe28fa27d000000000000000000000000000000000000000000000000000000008152683635c9adc5dea0000060048201529051600160a060020a03909216935063e28fa27d925060248082019260009290919082900301818387803b15801561056857600080fd5b505af115801561057c573d6000803e3d6000fd5b5050600254604080517f101e5a3200000000000000000000000000000000000000000000000000000000815268d8d726b7177a80000060048201529051600160a060020a03909216935063101e5a32925060248082019260009290919082900301818387803b1580156105ee57600080fd5b505af1158015610602573d6000803e3d6000fd5b5050600254600154604080517f144fa6d7000000000000000000000000000000000000000000000000000000008152600160a060020a039283166004820152905191909216935063144fa6d79250602480830192600092919082900301818387803b15801561067057600080fd5b505af1158015610684573d6000803e3d6000fd5b5050600154600254604080517f14133a7c000000000000000000000000000000000000000000000000000000008152600160a060020a03928316600482015290519190921693506314133a7c9250602480830192600092919082900301818387803b1580156106f257600080fd5b505af1158015610706573d6000803e3d6000fd5b50505050610712611123565b604051809103906000f08015801561072e573d6000803e3d6000fd5b506003805473ffffffffffffffffffffffffffffffffffffffff1916600160a060020a039283161790819055604080517fdeaa59df00000000000000000000000000000000000000000000000000000000815273ea15adb66dc92a4bbccc8bf32fd25e2e86a2a77060048201529051919092169163deaa59df91602480830192600092919082900301818387803b1580156107c857600080fd5b505af11580156107dc573d6000803e3d6000fd5b5050600354604080517ff6a03ebf000000000000000000000000000000000000000000000000000000008152635b89d68060048201529051600160a060020a03909216935063f6a03ebf925060248082019260009290919082900301818387803b15801561084957600080fd5b505af115801561085d573d6000803e3d6000fd5b50506003546040805160e060020a635601477b02815260076004820152600f60248201529051600160a060020a039092169350635601477b925060448082019260009290919082900301818387803b1580156108b857600080fd5b505af11580156108cc573d6000803e3d6000fd5b50506003546040805160e060020a635601477b02815260076004820152600d60248201529051600160a060020a039092169350635601477b925060448082019260009290919082900301818387803b15801561092757600080fd5b505af115801561093b573d6000803e3d6000fd5b50506003546040805160e060020a635601477b02815260076004820152600b60248201529051600160a060020a039092169350635601477b925060448082019260009290919082900301818387803b15801561099657600080fd5b505af11580156109aa573d6000803e3d6000fd5b50506003546040805160e060020a635601477b02815260076004820152600960248201529051600160a060020a039092169350635601477b925060448082019260009290919082900301818387803b158015610a0557600080fd5b505af1158015610a19573d6000803e3d6000fd5b50506003546040805160e060020a635601477b02815260076004820181905260248201529051600160a060020a039092169350635601477b925060448082019260009290919082900301818387803b158015610a7457600080fd5b505af1158015610a88573d6000803e3d6000fd5b50506003546040805160e060020a635601477b02815260076004820152600560248201529051600160a060020a039092169350635601477b925060448082019260009290919082900301818387803b158015610ae357600080fd5b505af1158015610af7573d6000803e3d6000fd5b5050600380546040805160e060020a635601477b02815260076004820152602481019390935251600160a060020a039091169350635601477b9250604480830192600092919082900301818387803b158015610b5257600080fd5b505af1158015610b66573d6000803e3d6000fd5b5050600354604080517f91b7f5ed00000000000000000000000000000000000000000000000000000000815261038460048201529051600160a060020a0390921693506391b7f5ed925060248082019260009290919082900301818387803b158015610bd157600080fd5b505af1158015610be5573d6000803e3d6000fd5b5050600354604080517fa34d927000000000000000000000000000000000000000000000000000000000815267016345785d8a000060048201529051600160a060020a03909216935063a34d9270925060248082019260009290919082900301818387803b158015610c5657600080fd5b505af1158015610c6a573d6000803e3d6000fd5b5050600354604080517fe28fa27d0000000000000000000000000000000000000000000000000000000081526906f0d8404002e284000060048201529051600160a060020a03909216935063e28fa27d925060248082019260009290919082900301818387803b158015610cdd57600080fd5b505af1158015610cf1573d6000803e3d6000fd5b5050600354604080517f0a2a9a0100000000000000000000000000000000000000000000000000000000815273ea15adb66dc92a4bbccc8bf32fd25e2e86a2a7706004820152600a60248201529051600160a060020a039092169350630a2a9a01925060448082019260009290919082900301818387803b158015610d7557600080fd5b505af1158015610d89573d6000803e3d6000fd5b5050600354600154604080517f144fa6d7000000000000000000000000000000000000000000000000000000008152600160a060020a039283166004820152905191909216935063144fa6d79250602480830192600092919082900301818387803b158015610df757600080fd5b505af1158015610e0b573d6000803e3d6000fd5b5050600254600354604080517fe4deb007000000000000000000000000000000000000000000000000000000008152600160a060020a039283166004820152905191909216935063e4deb0079250602480830192600092919082900301818387803b158015610e7957600080fd5b505af1158015610e8d573d6000803e3d6000fd5b5050600154604080517ff2fde38b00000000000000000000000000000000000000000000000000000000815273ea15adb66dc92a4bbccc8bf32fd25e2e86a2a770600482018190529151919550600160a060020a03909216935063f2fde38b9250602480830192600092919082900301818387803b158015610f0e57600080fd5b505af1158015610f22573d6000803e3d6000fd5b5050600254604080517ff2fde38b000000000000000000000000000000000000000000000000000000008152600160a060020a038681166004830152915191909216935063f2fde38b9250602480830192600092919082900301818387803b158015610f8d57600080fd5b505af1158015610fa1573d6000803e3d6000fd5b5050600354604080517ff2fde38b000000000000000000000000000000000000000000000000000000008152600160a060020a038681166004830152915191909216935063f2fde38b9250602480830192600092919082900301818387803b15801561100c57600080fd5b505af1158015611020573d6000803e3d6000fd5b5050505050565b600054600160a060020a031681565b600254600160a060020a031681565b600354600160a060020a031681565b600054600160a060020a0316331461106b57600080fd5b61107481611086565b50565b600154600160a060020a031681565b600160a060020a038116151561109b57600080fd5b60008054604051600160a060020a03808516939216917f8be0079c531659141344cd1fd0a4f28419497f9722a3daafe3b4186f6b6457e091a36000805473ffffffffffffffffffffffffffffffffffffffff1916600160a060020a0392909216919091179055565b6040516111828061113483390190565b604051611275806122b683390190565b6040516117ac8061352b833901905600608060405260038054600160a860020a0319163317905561115d806100256000396000f3006080604052600436106101485763ffffffff7c010000000000000000000000000000000000000000000000000000000060003504166305d2035b811461014d57806306fdde0314610176578063095ea7b31461020057806314133a7c1461022457806318160ddd1461024757806323b872dd1461026e5780632e4dde6014610298578063313ce567146102b957806340c10f19146102e75780634c66326d1461030b578063661884631461032c57806370a0823114610350578063715018a6146103715780637d64bcb4146103865780638da5cb5b1461039b578063923108d9146103cc57806395d89b41146103e4578063a9059cbb146103f9578063b1d6a2f01461041d578063cf1b037c14610432578063d73dd62314610453578063db0d7a3814610477578063dd62ed3e14610498578063f2fde38b146104bf578063f308846f146104e0575b600080fd5b34801561015957600080fd5b50610162610501565b604080519115158252519081900360200190f35b34801561018257600080fd5b5061018b610511565b6040805160208082528351818301528351919283929083019185019080838360005b838110156101c55781810151838201526020016101ad565b50505050905090810190601f1680156101f25780820380516001836020036101000a031916815260200191505b509250505060405180910390f35b34801561020c57600080fd5b50610162600160a060020a0360043516602435610548565b34801561023057600080fd5b50610245600160a060020a03600435166105ae565b005b34801561025357600080fd5b5061025c61060b565b60408051918252519081900360200190f35b34801561027a57600080fd5b50610162600160a060020a0360043581169060243516604435610611565b3480156102a457600080fd5b50610245600160a060020a0360043516610631565b3480156102c557600080fd5b506102ce610683565b6040805163ffffffff9092168252519081900360200190f35b3480156102f357600080fd5b50610162600160a060020a0360043516602435610688565b34801561031757600080fd5b50610245600160a060020a0360043516610820565b34801561033857600080fd5b50610162600160a060020a0360043516602435610858565b34801561035c57600080fd5b5061025c600160a060020a0360043516610948565b34801561037d57600080fd5b50610245610963565b34801561039257600080fd5b506101626109d1565b3480156103a757600080fd5b506103b0610a6b565b60408051600160a060020a039092168252519081900360200190f35b3480156103d857600080fd5b506103b0600435610a7a565b3480156103f057600080fd5b5061018b610aa2565b34801561040557600080fd5b50610162600160a060020a0360043516602435610ad9565b34801561042957600080fd5b506103b0610af7565b34801561043e57600080fd5b50610245600160a060020a0360043516610b06565b34801561045f57600080fd5b50610162600160a060020a0360043516602435610b41565b34801561048357600080fd5b50610162600160a060020a0360043516610bda565b3480156104a457600080fd5b5061025c600160a060020a0360043581169060243516610bef565b3480156104cb57600080fd5b50610245600160a060020a0360043516610c1a565b3480156104ec57600080fd5b50610162600160a060020a0360043516610c3d565b60035460a060020a900460ff1681565b60408051808201909152600781527f465253436f696e00000000000000000000000000000000000000000000000000602082015281565b336000818152600260209081526040808320600160a060020a038716808552908352818420869055815186815291519394909390927f8c5be1e5ebec7d5bd14f71427d1e84f3dd0314c0f7b2291e5b200ac8c7c3b925928290030190a350600192915050565b600454600160a060020a03163314806105d15750600354600160a060020a031633145b15156105dc57600080fd5b6004805473ffffffffffffffffffffffffffffffffffffffff1916600160a060020a0392909216919091179055565b60015490565b6000610629610621858585610c52565b858585610ceb565b949350505050565b600454600160a060020a03163314806106545750600354600160a060020a031633145b151561065f57600080fd5b600160a060020a03166000908152600560205260409020805460ff19166001179055565b601281565b600454600090600160a060020a03163314806106ae5750600354600160a060020a031633145b80156106c4575060035460a060020a900460ff16155b15156106cf57600080fd5b600160a060020a038316600090815260208190526040902054151561074757600680546001810182556000919091527ff652222313e28459528d920b65115c16c04f3efc82aaedc97be59f3f377c0d3f01805473ffffffffffffffffffffffffffffffffffffffff1916600160a060020a0385161790555b60015461075a908363ffffffff610da716565b600155600160a060020a038316600090815260208190526040902054610786908363ffffffff610da716565b600160a060020a03841660008181526020818152604091829020939093558051858152905191927f0f6798a560793a54c3bcfe86a93cde1e73087d944c0ea20544137d412139688592918290030190a2604080518381529051600160a060020a038516916000917fddf252ad1be2c89b69c2b068fc378daa952ba7f163c4a11628f55a4df523b3ef9181900360200190a350600192915050565b600354600160a060020a0316331461083757600080fd5b600160a060020a03166000908152600760205260409020805460ff19169055565b336000908152600260209081526040808320600160a060020a0386168452909152812054808311156108ad57336000908152600260209081526040808320600160a060020a03881684529091528120556108e2565b6108bd818463ffffffff610dba16565b336000908152600260209081526040808320600160a060020a03891684529091529020555b336000818152600260209081526040808320600160a060020a0389168085529083529281902054815190815290519293927f8c5be1e5ebec7d5bd14f71427d1e84f3dd0314c0f7b2291e5b200ac8c7c3b925929181900390910190a35060019392505050565b600160a060020a031660009081526020819052604090205490565b600354600160a060020a0316331461097a57600080fd5b600354604051600160a060020a03909116907ff8df31144d9c2f0f6b59d69b8b98abd5459d07f2742c4df920b25aae33c6482090600090a26003805473ffffffffffffffffffffffffffffffffffffffff19169055565b600454600090600160a060020a03163314806109f75750600354600160a060020a031633145b8015610a0d575060035460a060020a900460ff16155b1515610a1857600080fd5b6003805474ff0000000000000000000000000000000000000000191660a060020a1790556040517fae5184fba832cb2b1f702aca6117b8d265eaf03ad33eb133f19dde0f5920fa0890600090a150600190565b600354600160a060020a031681565b6006805482908110610a8857fe5b600091825260209091200154600160a060020a0316905081565b60408051808201909152600381527f4652530000000000000000000000000000000000000000000000000000000000602082015281565b6000610af0610ae88484610dcc565b338585610ceb565b9392505050565b600454600160a060020a031681565b600354600160a060020a03163314610b1d57600080fd5b600160a060020a03166000908152600760205260409020805460ff19166001179055565b336000908152600260209081526040808320600160a060020a0386168452909152812054610b75908363ffffffff610da716565b336000818152600260209081526040808320600160a060020a0389168085529083529281902085905580519485525191937f8c5be1e5ebec7d5bd14f71427d1e84f3dd0314c0f7b2291e5b200ac8c7c3b925929081900390910190a350600192915050565b60056020526000908152604090205460ff1681565b600160a060020a03918216600090815260026020908152604080832093909416825291909152205490565b600354600160a060020a03163314610c3157600080fd5b610c3a81610e5b565b50565b60076020526000908152604090205460ff1681565b600354600090849060a060020a900460ff1680610c7c5750600454600160a060020a038281169116145b80610c945750600354600160a060020a038281169116145b80610ccc575060035460a060020a900460ff16158015610ccc5750600160a060020a03811660009081526005602052604090205460ff165b1515610cd757600080fd5b610ce2858585610ed9565b95945050505050565b600080858015610d135750600160a060020a03841660009081526007602052604090205460ff165b15610d9d5750604080517f3b66d02b000000000000000000000000000000000000000000000000000000008152600160a060020a0386811660048301526024820185905291518592831691633b66d02b91604480830192600092919082900301818387803b158015610d8457600080fd5b505af1158015610d98573d6000803e3d6000fd5b505050505b5093949350505050565b81810182811015610db457fe5b92915050565b600082821115610dc657fe5b50900390565b600354600090339060a060020a900460ff1680610df65750600454600160a060020a038281169116145b80610e0e5750600354600160a060020a038281169116145b80610e46575060035460a060020a900460ff16158015610e465750600160a060020a03811660009081526005602052604090205460ff165b1515610e5157600080fd5b6106298484611050565b600160a060020a0381161515610e7057600080fd5b600354604051600160a060020a038084169216907f8be0079c531659141344cd1fd0a4f28419497f9722a3daafe3b4186f6b6457e090600090a36003805473ffffffffffffffffffffffffffffffffffffffff1916600160a060020a0392909216919091179055565b6000600160a060020a0383161515610ef057600080fd5b600160a060020a038416600090815260208190526040902054821115610f1557600080fd5b600160a060020a0384166000908152600260209081526040808320338452909152902054821115610f4557600080fd5b600160a060020a038416600090815260208190526040902054610f6e908363ffffffff610dba16565b600160a060020a038086166000908152602081905260408082209390935590851681522054610fa3908363ffffffff610da716565b600160a060020a03808516600090815260208181526040808320949094559187168152600282528281203382529091522054610fe5908363ffffffff610dba16565b600160a060020a03808616600081815260026020908152604080832033845282529182902094909455805186815290519287169391927fddf252ad1be2c89b69c2b068fc378daa952ba7f163c4a11628f55a4df523b3ef929181900390910190a35060019392505050565b6000600160a060020a038316151561106757600080fd5b3360009081526020819052604090205482111561108357600080fd5b336000908152602081905260409020546110a3908363ffffffff610dba16565b3360009081526020819052604080822092909255600160a060020a038516815220546110d5908363ffffffff610da716565b600160a060020a038416600081815260208181526040918290209390935580518581529051919233927fddf252ad1be2c89b69c2b068fc378daa952ba7f163c4a11628f55a4df523b3ef9281900390910190a3506001929150505600a165627a7a72305820c359babc18df6c23a199956a0a0459aad7d7e8a5a4e539b7015a3b18c4252d180029608060405260646008556010805460ff1916600117905560008054600160a060020a0319163317905561123e806100376000396000f3006080604052600436106101ea5763ffffffff60e060020a6000350416630f3a9f6581146101f5578063101e5a321461020f578063144fa6d71461022757806327e235e3146102485780633ccfd60b1461027b578063480b890d14610290578063521eb273146102a8578063562605f1146102d9578063590e1ae3146103025780636341ca0b1461031757806368f5ccdf1461033e5780636abc3fe4146103535780636d6908bd14610368578063715018a6146103c2578063769ffb7d146103d75780638090114f146103f8578063836880d31461040d5780638da5cb5b146104225780638ea5220f1461043757806390525c051461044c57806391b7f5ed146104615780639bf6eb6014610479578063a035b1fe1461049d578063a34d9270146104b2578063b071cbe6146104ca578063be9a6555146104df578063c1aa721d146104f4578063ca1e5bb714610509578063cafb22021461052d578063d56b288914610542578063d64196f814610557578063d7d880431461056c578063de38460b14610581578063deaa59df14610596578063e28fa27d146105b7578063e4deb007146105cf578063ea3342e8146105f0578063ef78d4fd1461060a578063f2fde38b1461061f578063f6a03ebf14610640578063f89be59314610658578063fc0c546a1461066d575b6101f2610682565b50005b34801561020157600080fd5b5061020d6004356106d2565b005b34801561021b57600080fd5b5061020d6004356106ee565b34801561023357600080fd5b5061020d600160a060020a036004351661070a565b34801561025457600080fd5b50610269600160a060020a0360043516610750565b60408051918252519081900360200190f35b34801561028757600080fd5b5061020d610762565b34801561029c57600080fd5b5061020d600435610847565b3480156102b457600080fd5b506102bd610863565b60408051600160a060020a039092168252519081900360200190f35b3480156102e557600080fd5b506102ee610872565b604080519115158252519081900360200190f35b34801561030e57600080fd5b5061020d610880565b34801561032357600080fd5b5061020d600160a060020a03600435811690602435166108f8565b34801561034a57600080fd5b506102ee610a28565b34801561035f57600080fd5b506102bd610a31565b34801561037457600080fd5b5060408051602060046024803582810135848102808701860190975280865261020d96843596369660449591949091019291829185019084908082843750949750610a409650505050505050565b3480156103ce57600080fd5b5061020d610b1e565b3480156103e357600080fd5b5061020d600160a060020a0360043516610b8a565b34801561040457600080fd5b50610269610bd0565b34801561041957600080fd5b506102ee610bd6565b34801561042e57600080fd5b506102bd610bdf565b34801561044357600080fd5b506102bd610bee565b34801561045857600080fd5b50610269610c06565b34801561046d57600080fd5b5061020d600435610c13565b34801561048557600080fd5b5061020d600160a060020a0360043516602435610c2f565b3480156104a957600080fd5b50610269610c67565b3480156104be57600080fd5b5061020d600435610c6d565b3480156104d657600080fd5b50610269610c89565b3480156104eb57600080fd5b50610269610c8f565b34801561050057600080fd5b506102ee610c95565b34801561051557600080fd5b5061020d600160a060020a0360043516602435610c9e565b34801561053957600080fd5b50610269610cdf565b34801561054e57600080fd5b5061020d610ce5565b34801561056357600080fd5b50610269610e1b565b34801561057857600080fd5b50610269610e21565b34801561058d57600080fd5b506102bd610e44565b3480156105a257600080fd5b5061020d600160a060020a0360043516610e53565b3480156105c357600080fd5b5061020d600435610e99565b3480156105db57600080fd5b5061020d600160a060020a0360043516610eb5565b3480156105fc57600080fd5b5061020d6004351515610efb565b34801561061657600080fd5b50610269610f25565b34801561062b57600080fd5b5061020d600160a060020a0360043516610f2b565b34801561064c57600080fd5b5061020d600435610f4b565b34801561066457600080fd5b50610269610f67565b34801561067957600080fd5b506102bd610f6d565b600034600d54811015151561069657600080fd5b600c5442101580156106ae57506106ab610e21565b42105b15156106b957600080fd5b6106c234610f7c565b6106cc3334610f95565b91505090565b600054600160a060020a031633146106e957600080fd5b601155565b600054600160a060020a0316331461070557600080fd5b600655565b600054600160a060020a0316331461072157600080fd5b600e805473ffffffffffffffffffffffffffffffffffffffff1916600160a060020a0392909216919091179055565b60046020526000908152604090205481565b600054600160a060020a031633148061078e57503373ea15adb66dc92a4bbccc8bf32fd25e2e86a2a770145b151561079957600080fd5b60055460ff1615156107aa57600080fd5b60075460ff16151561080a5760405173ea15adb66dc92a4bbccc8bf32fd25e2e86a2a77090600090680138400eca364a00009082818181858883f193505050501580156107fb573d6000803e3d6000fd5b506007805460ff191660011790555b600354604051600160a060020a0390911690303180156108fc02916000818181858888f19350505050158015610844573d6000803e3d6000fd5b50565b600054600160a060020a0316331461085e57600080fd5b600855565b600354600160a060020a031681565b600554610100900460ff1681565b600554600090610100900460ff1680156108a7575033600090815260046020526040812054115b15156108b257600080fd5b5033600081815260046020526040808220805490839055905190929183156108fc02918491818181858888f193505050501580156108f4573d6000803e3d6000fd5b5050565b60008054600160a060020a0316331461091057600080fd5b50604080517f70a0823100000000000000000000000000000000000000000000000000000000815230600482015290518291600160a060020a0383169163a9059cbb91869184916370a082319160248083019260209291908290030181600087803b15801561097e57600080fd5b505af1158015610992573d6000803e3d6000fd5b505050506040513d60208110156109a857600080fd5b50516040805160e060020a63ffffffff8616028152600160a060020a03909316600484015260248301919091525160448083019260209291908290030181600087803b1580156109f757600080fd5b505af1158015610a0b573d6000803e3d6000fd5b505050506040513d6020811015610a2157600080fd5b5050505050565b60075460ff1681565b600a54600160a060020a031681565b60008054600160a060020a03163314610a5857600080fd5b5060005b8151811015610b19576009548251600160a060020a03909116906340c10f1990849084908110610a8857fe5b90602001906020020151856040518363ffffffff1660e060020a0281526004018083600160a060020a0316600160a060020a0316815260200182815260200192505050602060405180830381600087803b158015610ae557600080fd5b505af1158015610af9573d6000803e3d6000fd5b505050506040513d6020811015610b0f57600080fd5b5050600101610a5c565b505050565b600054600160a060020a03163314610b3557600080fd5b60008054604051600160a060020a03909116917ff8df31144d9c2f0f6b59d69b8b98abd5459d07f2742c4df920b25aae33c6482091a26000805473ffffffffffffffffffffffffffffffffffffffff19169055565b600054600160a060020a03163314610ba157600080fd5b600a805473ffffffffffffffffffffffffffffffffffffffff1916600160a060020a0392909216919091179055565b60085481565b60055460ff1681565b600054600160a060020a031681565b73ea15adb66dc92a4bbccc8bf32fd25e2e86a2a77081565b680138400eca364a000081565b600054600160a060020a03163314610c2a57600080fd5b600b55565b600a54600160a060020a0316331480610c525750600054600160a060020a031633145b1515610c5d57600080fd5b6108f48282610fb5565b600b5481565b600054600160a060020a03163314610c8457600080fd5b600d55565b600f5481565b600c5481565b60105460ff1681565b600a54600160a060020a0316331480610cc15750600054600160a060020a031633145b1515610ccc57600080fd5b610cd581610f7c565b610b198282610f95565b60025481565b600054600160a060020a03163314610cfc57600080fd5b610d0461104e565b15610d8e57600e60009054906101000a9004600160a060020a0316600160a060020a0316637d64bcb46040518163ffffffff1660e060020a028152600401602060405180830381600087803b158015610d5c57600080fd5b505af1158015610d70573d6000803e3d6000fd5b505050506040513d6020811015610d8657600080fd5b50610e199050565b610d96610762565b600e54600154604080517f14133a7c000000000000000000000000000000000000000000000000000000008152600160a060020a039283166004820152905191909216916314133a7c91602480830192600092919082900301818387803b158015610e0057600080fd5b505af1158015610e14573d6000803e3d6000fd5b505050505b565b600d5481565b6000610e3f6011546201518002600c5461107c90919063ffffffff16565b905090565b600154600160a060020a031681565b600054600160a060020a03163314610e6a57600080fd5b6003805473ffffffffffffffffffffffffffffffffffffffff1916600160a060020a0392909216919091179055565b600054600160a060020a03163314610eb057600080fd5b600f55565b600054600160a060020a03163314610ecc57600080fd5b6001805473ffffffffffffffffffffffffffffffffffffffff1916600160a060020a0392909216919091179055565b600054600160a060020a03163314610f1257600080fd5b6010805460ff1916911515919091179055565b60115481565b600054600160a060020a03163314610f4257600080fd5b6108448161108f565b600054600160a060020a03163314610f6257600080fd5b600c55565b60065481565b600e54600160a060020a031681565b600254610f8f908263ffffffff61107c16565b60025550565b600080610fa2848461110c565b9050610fae8484611136565b9392505050565b600954604080517f40c10f19000000000000000000000000000000000000000000000000000000008152600160a060020a03858116600483015260248201859052915191909216916340c10f199160448083019260209291908290030181600087803b15801561102457600080fd5b505af1158015611038573d6000803e3d6000fd5b505050506040513d6020811015610e1457600080fd5b60055460009060ff16151561106d576005805461ff0019166101001790555b50600554610100900460ff1690565b8181018281101561108957fe5b92915050565b600160a060020a03811615156110a457600080fd5b60008054604051600160a060020a03808516939216917f8be0079c531659141344cd1fd0a4f28419497f9722a3daafe3b4186f6b6457e091a36000805473ffffffffffffffffffffffffffffffffffffffff1916600160a060020a0392909216919091179055565b600080600f5460025410151561112157600080fd5b61112a836111a5565b9050610fae8482610fb5565b600160a060020a03821660009081526004602052604090205461115f908263ffffffff61107c16565b600160a060020a03831660009081526004602052604090205560055460ff1615801561118f575060065460025410155b156108f4576005805460ff191660011790555050565b6000611089670de0b6b3a76400006111c8600b54856111d490919063ffffffff16565b9063ffffffff6111fd16565b60008215156111e557506000611089565b508181028183828115156111f557fe5b041461108957fe5b6000818381151561120a57fe5b0493925050505600a165627a7a7230582022934d36d36276a3ccc260246f4465666f30ff371096eb98f0c38ade9c892abc00296080604052606460038190556007556010805460ff1916600117905560008054600160a060020a031916331790556117708061003c6000396000f3006080604052600436106101ea5763ffffffff60e060020a6000350416630a2a9a0181146101f5578063144fa6d71461021b578063480b890d1461023c5780634c94ac6a14610254578063521eb273146102695780635601477b1461029a5780636341ca0b146102b55780636793c8e1146102dc5780636abc3fe4146103065780636d6908bd1461031b578063715018a614610375578063769ffb7d1461038a5780637ad71f72146103ab5780637e00d77a146103c35780638090114f146103d85780638da5cb5b146103ed57806391b7f5ed146104025780639bf6eb601461041a5780639dc905bb1461043e578063a035b1fe1461045f578063a34d927014610474578063aa525c551461048c578063ab36e4a6146104a7578063b071cbe6146104bc578063bd17647f146104d1578063be9a6555146104f2578063c1aa721d14610507578063ca1e5bb714610530578063cafb220214610554578063ce14a46e14610569578063d56b28891461057e578063d64196f814610593578063d7d88043146105a8578063deaa59df146105bd578063e28fa27d146105de578063e89e4ed6146105f6578063ea3342e814610627578063f2fde38b14610641578063f6a03ebf14610662578063fc0c546a1461067a578063fcf401701461068f578063fd83da09146106a4575b6101f26106bc565b50005b34801561020157600080fd5b50610219600160a060020a0360043516602435610747565b005b34801561022757600080fd5b50610219600160a060020a03600435166107c7565b34801561024857600080fd5b5061021960043561080d565b34801561026057600080fd5b50610219610829565b34801561027557600080fd5b5061027e6108a3565b60408051600160a060020a039092168252519081900360200190f35b3480156102a657600080fd5b506102196004356024356108b2565b3480156102c157600080fd5b50610219600160a060020a0360043581169060243516610960565b3480156102e857600080fd5b506102f4600435610a90565b60408051918252519081900360200190f35b34801561031257600080fd5b5061027e610b2c565b34801561032757600080fd5b5060408051602060046024803582810135848102808701860190975280865261021996843596369660449591949091019291829185019084908082843750949750610b3b9650505050505050565b34801561038157600080fd5b50610219610c19565b34801561039657600080fd5b50610219600160a060020a0360043516610c85565b3480156103b757600080fd5b5061027e600435610ccb565b3480156103cf57600080fd5b50610219610cf3565b3480156103e457600080fd5b506102f4610ed4565b3480156103f957600080fd5b5061027e610eda565b34801561040e57600080fd5b50610219600435610ee9565b34801561042657600080fd5b50610219600160a060020a0360043516602435610f05565b34801561044a57600080fd5b5061021960ff60043516602435604435610f41565b34801561046b57600080fd5b506102f4611049565b34801561048057600080fd5b5061021960043561104f565b34801561049857600080fd5b5061021960ff6004351661106b565b3480156104b357600080fd5b506102f461117a565b3480156104c857600080fd5b506102f4611181565b3480156104dd57600080fd5b5061021960ff60043516602435604435611187565b3480156104fe57600080fd5b506102f4611213565b34801561051357600080fd5b5061051c611219565b604080519115158252519081900360200190f35b34801561053c57600080fd5b50610219600160a060020a0360043516602435611222565b34801561056057600080fd5b506102f4611263565b34801561057557600080fd5b506102f4611269565b34801561058a57600080fd5b5061021961126f565b34801561059f57600080fd5b506102f461130b565b3480156105b457600080fd5b506102f4611311565b3480156105c957600080fd5b50610219600160a060020a0360043516611323565b3480156105ea57600080fd5b50610219600435611369565b34801561060257600080fd5b5061060e600435611385565b6040805192835260208301919091528051918290030190f35b34801561063357600080fd5b5061021960043515156113b1565b34801561064d57600080fd5b50610219600160a060020a03600435166113db565b34801561066e57600080fd5b506102196004356113fe565b34801561068657600080fd5b5061027e61141a565b34801561069b57600080fd5b50610219611429565b3480156106b057600080fd5b506102f460043561144d565b600034600d5481101515156106d057600080fd5b600c5442101580156106e857506106e5611311565b42105b15156106f357600080fd5b600254604051600160a060020a03909116903480156108fc02916000818181858888f1935050505015801561072c573d6000803e3d6000fd5b5061073634611459565b6107403334611472565b91505b5090565b600054600160a060020a0316331461075e57600080fd5b60058054600181019091557f036b6384b5eca791c62761152d0c79bb0604c104a5fb6f4eb0703f3154bb3db0018054600160a060020a0390931673ffffffffffffffffffffffffffffffffffffffff199093168317905560009182526006602052604090912055565b600054600160a060020a031633146107de57600080fd5b600e805473ffffffffffffffffffffffffffffffffffffffff1916600160a060020a0392909216919091179055565b600054600160a060020a0316331461082457600080fd5b600355565b60008054600160a060020a0316331461084157600080fd5b60095460001061085057600080fd5b5060005b60095481101561088d57600980548290811061086c57fe5b60009182526020822060029091020181815560019081019190915501610854565b600061089a6009826116ba565b50506000600855565b600254600160a060020a031681565b600054600160a060020a031633146108c957600080fd5b600082116108d657600080fd5b60408051808201909152828152602081018281526009805460018101825560009190915291517f6e1540171b6c0c960b71a7020d9f60077f6af931a8bbf590da0223dacf75c7af600290930292830155517f6e1540171b6c0c960b71a7020d9f60077f6af931a8bbf590da0223dacf75c7b09091015560085461095990836114a3565b6008555050565b60008054600160a060020a0316331461097857600080fd5b50604080517f70a0823100000000000000000000000000000000000000000000000000000000815230600482015290518291600160a060020a0383169163a9059cbb91869184916370a082319160248083019260209291908290030181600087803b1580156109e657600080fd5b505af11580156109fa573d6000803e3d6000fd5b505050506040513d6020811015610a1057600080fd5b50516040805160e060020a63ffffffff8616028152600160a060020a03909316600484015260248301919091525160448083019260209291908290030181600087803b158015610a5f57600080fd5b505af1158015610a73573d6000803e3d6000fd5b505050506040513d6020811015610a8957600080fd5b5050505050565b600081815b600954811015610b2057814210158015610ad457506009805482908110610ab857fe5b9060005260206000209060020201600001546201518002820142105b15610ae157809250610b25565b610b16600982815481101515610af357fe5b60009182526020909120600290910201548390620151800263ffffffff6114a316565b9150600101610a95565b600080fd5b5050919050565b600a54600160a060020a031681565b60008054600160a060020a03163314610b5357600080fd5b5060005b8151811015610c14576004548251600160a060020a03909116906340c10f1990849084908110610b8357fe5b90602001906020020151856040518363ffffffff1660e060020a0281526004018083600160a060020a0316600160a060020a0316815260200182815260200192505050602060405180830381600087803b158015610be057600080fd5b505af1158015610bf4573d6000803e3d6000fd5b505050506040513d6020811015610c0a57600080fd5b5050600101610b57565b505050565b600054600160a060020a03163314610c3057600080fd5b60008054604051600160a060020a03909116917ff8df31144d9c2f0f6b59d69b8b98abd5459d07f2742c4df920b25aae33c6482091a26000805473ffffffffffffffffffffffffffffffffffffffff19169055565b600054600160a060020a03163314610c9c57600080fd5b600a805473ffffffffffffffffffffffffffffffffffffffff1916600160a060020a0392909216919091179055565b6005805482908110610cd957fe5b600091825260209091200154600160a060020a0316905081565b600080548190819081908190600160a060020a03163314610d1357600080fd5b60009450600093505b600554841015610d7b57610d6e60066000600587815481101515610d3c57fe5b6000918252602080832090910154600160a060020a03168352820192909252604001902054869063ffffffff6114a316565b9450600190930192610d1c565b60048054604080517f18160ddd0000000000000000000000000000000000000000000000000000000081529051600160a060020a03909216926318160ddd9282820192602092908290030181600087803b158015610dd857600080fd5b505af1158015610dec573d6000803e3d6000fd5b505050506040513d6020811015610e0257600080fd5b5051600754909350610e3e90610e1e908763ffffffff6114b616565b600754610e3290869063ffffffff6114c816565b9063ffffffff6114f116565b9150600090505b600554811015610a8957610ecc600582815481101515610e6157fe5b600091825260208220015460075460058054600160a060020a0390931693610ec793610e32926006929189908110610e9557fe5b6000918252602080832090910154600160a060020a03168352820192909252604001902054879063ffffffff6114c816565b611506565b600101610e45565b60075481565b600054600160a060020a031681565b600054600160a060020a03163314610f0057600080fd5b600b55565b600a54600160a060020a0316331480610f285750600054600160a060020a031633145b1515610f3357600080fd5b610f3d8282611506565b5050565b60008054600160a060020a03163314610f5957600080fd5b60095460ff851610610f6a57600080fd5b600854610f7d908463ffffffff6114a316565b6008556009805490610f9290600183016116ba565b5050600954600119015b8360ff16811115610ffc576009805482908110610fb557fe5b9060005260206000209060020201600982600101815481101515610fd557fe5b60009182526020909120825460029092020190815560019182015491015560001901610f9c565b60408051808201909152838152602081018390526009805460ff600188011690811061102457fe5b6000918252602091829020835160029092020190815591015160019091015550505050565b600b5481565b600054600160a060020a0316331461106657600080fd5b600d55565b600080548190600160a060020a0316331461108557600080fd5b60095460ff84161061109657600080fd5b6009805460ff85169081106110a757fe5b906000526020600020906002020191506110d082600001546008546114b690919063ffffffff16565b6008556009805460ff85169081106110e457fe5b600091825260208220600290910201818155600101555060ff82165b6009546000190181101561116157600980546001830190811061111f57fe5b906000526020600020906002020160098281548110151561113c57fe5b6000918252602090912082546002909202019081556001918201549082015501611100565b60098054906111749060001983016116ba565b50505050565b6009545b90565b600f5481565b60008054600160a060020a0316331461119f57600080fd5b60095460ff8516106111b057600080fd5b6009805460ff86169081106111c157fe5b906000526020600020906002020190506111ea81600001546008546114b690919063ffffffff16565b6008908155838255600182018390555461120a908463ffffffff6114a316565b60085550505050565b600c5481565b60105460ff1681565b600a54600160a060020a03163314806112455750600054600160a060020a031633145b151561125057600080fd5b61125981611459565b610c148282611472565b60015481565b60085481565b600054600160a060020a0316331461128657600080fd5b61128e610cf3565b600e60009054906101000a9004600160a060020a0316600160a060020a0316637d64bcb46040518163ffffffff1660e060020a028152600401602060405180830381600087803b1580156112e157600080fd5b505af11580156112f5573d6000803e3d6000fd5b505050506040513d6020811015610f3d57600080fd5b600d5481565b600061131e600c5461144d565b905090565b600054600160a060020a0316331461133a57600080fd5b6002805473ffffffffffffffffffffffffffffffffffffffff1916600160a060020a0392909216919091179055565b600054600160a060020a0316331461138057600080fd5b600f55565b600980548290811061139357fe5b60009182526020909120600290910201805460019091015490915082565b600054600160a060020a031633146113c857600080fd5b6010805460ff1916911515919091179055565b600054600160a060020a031633146113f257600080fd5b6113fb816115a3565b50565b600054600160a060020a0316331461141557600080fd5b600c55565b600e54600160a060020a031681565b600054600160a060020a0316331461144057600080fd5b60006113fb6005826116e6565b60085462015180020190565b60015461146c908263ffffffff6114a316565b60015550565b600080600f5460015410151561148757600080fd5b61149083611620565b905061149c8482611506565b9392505050565b818101828110156114b057fe5b92915050565b6000828211156114c257fe5b50900390565b60008215156114d9575060006114b0565b508181028183828115156114e957fe5b04146114b057fe5b600081838115156114fe57fe5b049392505050565b60048054604080517f40c10f19000000000000000000000000000000000000000000000000000000008152600160a060020a038681169482019490945260248101859052905192909116916340c10f19916044808201926020929091908290030181600087803b15801561157957600080fd5b505af115801561158d573d6000803e3d6000fd5b505050506040513d602081101561117457600080fd5b600160a060020a03811615156115b857600080fd5b60008054604051600160a060020a03808516939216917f8be0079c531659141344cd1fd0a4f28419497f9722a3daafe3b4186f6b6457e091a36000805473ffffffffffffffffffffffffffffffffffffffff1916600160a060020a0392909216919091179055565b600080600080611631600c54610a90565b925060098381548110151561164257fe5b90600052602060002090600202019150611673670de0b6b3a7640000610e32600b54886114c890919063ffffffff16565b90506000826001015411156116b2576116af6116a2600754610e328560010154856114c890919063ffffffff16565b829063ffffffff6114a316565b90505b949350505050565b815481835581811115610c1457600202816002028360005260206000209182019101610c14919061170a565b815481835581811115610c1457600083815260209020610c1491810190830161172a565b61117e91905b808211156107435760008082556001820155600201611710565b61117e91905b8082111561074357600081556001016117305600a165627a7a72305820ecb42ce823a5e08f7e05b4eb0a68bed14a5a40cc0f21ade72e1f5f695e4f829f0029a165627a7a7230582054363bbef1081755eab7a6edf0c4950b1de0713602bb2d2d788f559f311d03a40029",
  "source": "pragma solidity ^0.4.24;\n\nimport './ownership/Ownable.sol';\nimport './Token.sol';\nimport './PreITO.sol';\nimport './ITO.sol';\n\ncontract Configurator is Ownable {\n\n  Token public token;\n\n  PreITO public preITO;\n\n  ITO public ito;\n\n  function deploy() public onlyOwner {\n\n    token = new Token();\n\n    preITO = new PreITO();\n\n    preITO.setWallet(0xEA15Adb66DC92a4BbCcC8Bf32fd25E2e86a2A770);\n    preITO.setStart(1531612800);\n    preITO.setPeriod(48);\n    preITO.setPrice(1080000000000000000000);\n    preITO.setMinInvestedLimit(100000000000000000);\n    preITO.setHardcap(1000000000000000000000);\n    preITO.setSoftcap(4000000000000000000000);\n    preITO.setToken(token);\n\n    token.setSaleAgent(preITO);\n\n    ito = new ITO();\n\n    ito.setWallet(0xEA15Adb66DC92a4BbCcC8Bf32fd25E2e86a2A770);\n    ito.setStart(1535760000);\n    ito.addMilestone(7, 15);\n    ito.addMilestone(7, 13);\n    ito.addMilestone(7, 11);\n    ito.addMilestone(7, 9);\n    ito.addMilestone(7, 7);\n    ito.addMilestone(7, 5);\n    ito.addMilestone(7, 3);\n    ito.setPrice(900);\n    ito.setMinInvestedLimit(100000000000000000);\n    ito.setHardcap(32777000000000000000000);\n    ito.addWallet(0xEA15Adb66DC92a4BbCcC8Bf32fd25E2e86a2A770, 10);\n    ito.setToken(token);\n\n    preITO.setNextSaleAgent(ito);\n\n    address manager = 0xEA15Adb66DC92a4BbCcC8Bf32fd25E2e86a2A770;\n\n    token.transferOwnership(manager);\n    preITO.transferOwnership(manager);\n    ito.transferOwnership(manager);\n  }\n\n}\n\n",
  "sourcePath": "/home/iceberg/projects/FRS/contracts/Configurator.sol",
  "compiler": {
    "name": "solc",
    "version": "0.4.24+commit.e67f0147.Emscripten.clang"
  },
  "schemaVersion": "2.0.1",
  "updatedAt": "2018-07-05T16:53:10.536Z"
}