{
  "contractName": "InvestedProvider",
  "abi": [
    {
      "constant": false,
      "inputs": [],
      "name": "renounceOwnership",
      "outputs": [],
      "payable": false,
      "stateMutability": "nonpayable",
      "type": "function"
    },
    {
      "constant": true,
      "inputs": [],
      "name": "owner",
      "outputs": [
        {
          "name": "",
          "type": "address"
        }
      ],
      "payable": false,
      "stateMutability": "view",
      "type": "function"
    },
    {
      "constant": true,
      "inputs": [],
      "name": "invested",
      "outputs": [
        {
          "name": "",
          "type": "uint256"
        }
      ],
      "payable": false,
      "stateMutability": "view",
      "type": "function"
    },
    {
      "constant": false,
      "inputs": [
        {
          "name": "_newOwner",
          "type": "address"
        }
      ],
      "name": "transferOwnership",
      "outputs": [],
      "payable": false,
      "stateMutability": "nonpayable",
      "type": "function"
    },
    {
      "anonymous": false,
      "inputs": [
        {
          "indexed": true,
          "name": "previousOwner",
          "type": "address"
        }
      ],
      "name": "OwnershipRenounced",
      "type": "event"
    },
    {
      "anonymous": false,
      "inputs": [
        {
          "indexed": true,
          "name": "previousOwner",
          "type": "address"
        },
        {
          "indexed": true,
          "name": "newOwner",
          "type": "address"
        }
      ],
      "name": "OwnershipTransferred",
      "type": "event"
    }
  ],
  "bytecode": "0x608060405260008054600160a060020a03191633179055610243806100256000396000f3006080604052600436106100615763ffffffff7c0100000000000000000000000000000000000000000000000000000000600035041663715018a681146100665780638da5cb5b1461007d578063cafb2202146100ae578063f2fde38b146100d5575b600080fd5b34801561007257600080fd5b5061007b6100f6565b005b34801561008957600080fd5b50610092610162565b60408051600160a060020a039092168252519081900360200190f35b3480156100ba57600080fd5b506100c3610171565b60408051918252519081900360200190f35b3480156100e157600080fd5b5061007b600160a060020a0360043516610177565b600054600160a060020a0316331461010d57600080fd5b60008054604051600160a060020a03909116917ff8df31144d9c2f0f6b59d69b8b98abd5459d07f2742c4df920b25aae33c6482091a26000805473ffffffffffffffffffffffffffffffffffffffff19169055565b600054600160a060020a031681565b60015481565b600054600160a060020a0316331461018e57600080fd5b6101978161019a565b50565b600160a060020a03811615156101af57600080fd5b60008054604051600160a060020a03808516939216917f8be0079c531659141344cd1fd0a4f28419497f9722a3daafe3b4186f6b6457e091a36000805473ffffffffffffffffffffffffffffffffffffffff1916600160a060020a03929092169190911790555600a165627a7a723058209065afc17f7caf46c9836ab121feecdae250e62943afa818eb51b7475d7121d20029",
  "source": "pragma solidity ^0.4.24;\n\nimport './ownership/Ownable.sol';\n\ncontract InvestedProvider is Ownable {\n\n  uint public invested;\n\n}\n\n",
  "sourcePath": "/home/iceberg/projects/FRS/contracts/InvestedProvider.sol",
  "compiler": {
    "name": "solc",
    "version": "0.4.24+commit.e67f0147.Emscripten.clang"
  },
  "schemaVersion": "2.0.1",
  "updatedAt": "2018-07-05T16:53:10.532Z"
}