{
  "contractName": "ITO",
  "abi": [
    {
      "constant": false,
      "inputs": [
        {
          "name": "wallet",
          "type": "address"
        },
        {
          "name": "percent",
          "type": "uint256"
        }
      ],
      "name": "addWallet",
      "outputs": [],
      "payable": false,
      "stateMutability": "nonpayable",
      "type": "function"
    },
    {
      "constant": false,
      "inputs": [
        {
          "name": "newToken",
          "type": "address"
        }
      ],
      "name": "setToken",
      "outputs": [],
      "payable": false,
      "stateMutability": "nonpayable",
      "type": "function"
    },
    {
      "constant": false,
      "inputs": [
        {
          "name": "newPercentRate",
          "type": "uint256"
        }
      ],
      "name": "setPercentRate",
      "outputs": [],
      "payable": false,
      "stateMutability": "nonpayable",
      "type": "function"
    },
    {
      "constant": false,
      "inputs": [],
      "name": "clearMilestones",
      "outputs": [],
      "payable": false,
      "stateMutability": "nonpayable",
      "type": "function"
    },
    {
      "constant": true,
      "inputs": [],
      "name": "wallet",
      "outputs": [
        {
          "name": "",
          "type": "address"
        }
      ],
      "payable": false,
      "stateMutability": "view",
      "type": "function"
    },
    {
      "constant": false,
      "inputs": [
        {
          "name": "period",
          "type": "uint256"
        },
        {
          "name": "bonus",
          "type": "uint256"
        }
      ],
      "name": "addMilestone",
      "outputs": [],
      "payable": false,
      "stateMutability": "nonpayable",
      "type": "function"
    },
    {
      "constant": false,
      "inputs": [
        {
          "name": "to",
          "type": "address"
        },
        {
          "name": "anotherToken",
          "type": "address"
        }
      ],
      "name": "retrieveTokens",
      "outputs": [],
      "payable": false,
      "stateMutability": "nonpayable",
      "type": "function"
    },
    {
      "constant": true,
      "inputs": [
        {
          "name": "start",
          "type": "uint256"
        }
      ],
      "name": "currentMilestone",
      "outputs": [
        {
          "name": "",
          "type": "uint256"
        }
      ],
      "payable": false,
      "stateMutability": "view",
      "type": "function"
    },
    {
      "constant": true,
      "inputs": [],
      "name": "directMintAgent",
      "outputs": [
        {
          "name": "",
          "type": "address"
        }
      ],
      "payable": false,
      "stateMutability": "view",
      "type": "function"
    },
    {
      "constant": false,
      "inputs": [
        {
          "name": "amount",
          "type": "uint256"
        },
        {
          "name": "to",
          "type": "address[]"
        }
      ],
      "name": "mintTokensBatch",
      "outputs": [],
      "payable": false,
      "stateMutability": "nonpayable",
      "type": "function"
    },
    {
      "constant": false,
      "inputs": [],
      "name": "renounceOwnership",
      "outputs": [],
      "payable": false,
      "stateMutability": "nonpayable",
      "type": "function"
    },
    {
      "constant": false,
      "inputs": [
        {
          "name": "newDirectMintAgent",
          "type": "address"
        }
      ],
      "name": "setDirectMintAgent",
      "outputs": [],
      "payable": false,
      "stateMutability": "nonpayable",
      "type": "function"
    },
    {
      "constant": true,
      "inputs": [
        {
          "name": "",
          "type": "uint256"
        }
      ],
      "name": "wallets",
      "outputs": [
        {
          "name": "",
          "type": "address"
        }
      ],
      "payable": false,
      "stateMutability": "view",
      "type": "function"
    },
    {
      "constant": false,
      "inputs": [],
      "name": "mintExtendedTokens",
      "outputs": [],
      "payable": false,
      "stateMutability": "nonpayable",
      "type": "function"
    },
    {
      "constant": true,
      "inputs": [],
      "name": "percentRate",
      "outputs": [
        {
          "name": "",
          "type": "uint256"
        }
      ],
      "payable": false,
      "stateMutability": "view",
      "type": "function"
    },
    {
      "constant": true,
      "inputs": [],
      "name": "owner",
      "outputs": [
        {
          "name": "",
          "type": "address"
        }
      ],
      "payable": false,
      "stateMutability": "view",
      "type": "function"
    },
    {
      "constant": false,
      "inputs": [
        {
          "name": "newPrice",
          "type": "uint256"
        }
      ],
      "name": "setPrice",
      "outputs": [],
      "payable": false,
      "stateMutability": "nonpayable",
      "type": "function"
    },
    {
      "constant": false,
      "inputs": [
        {
          "name": "to",
          "type": "address"
        },
        {
          "name": "tokens",
          "type": "uint256"
        }
      ],
      "name": "mintTokensExternal",
      "outputs": [],
      "payable": false,
      "stateMutability": "nonpayable",
      "type": "function"
    },
    {
      "constant": false,
      "inputs": [
        {
          "name": "numberAfter",
          "type": "uint8"
        },
        {
          "name": "period",
          "type": "uint256"
        },
        {
          "name": "bonus",
          "type": "uint256"
        }
      ],
      "name": "insertMilestone",
      "outputs": [],
      "payable": false,
      "stateMutability": "nonpayable",
      "type": "function"
    },
    {
      "constant": true,
      "inputs": [],
      "name": "price",
      "outputs": [
        {
          "name": "",
          "type": "uint256"
        }
      ],
      "payable": false,
      "stateMutability": "view",
      "type": "function"
    },
    {
      "constant": false,
      "inputs": [
        {
          "name": "newMinInvestedLimit",
          "type": "uint256"
        }
      ],
      "name": "setMinInvestedLimit",
      "outputs": [],
      "payable": false,
      "stateMutability": "nonpayable",
      "type": "function"
    },
    {
      "constant": false,
      "inputs": [
        {
          "name": "number",
          "type": "uint8"
        }
      ],
      "name": "removeMilestone",
      "outputs": [],
      "payable": false,
      "stateMutability": "nonpayable",
      "type": "function"
    },
    {
      "constant": true,
      "inputs": [],
      "name": "milestonesCount",
      "outputs": [
        {
          "name": "",
          "type": "uint256"
        }
      ],
      "payable": false,
      "stateMutability": "view",
      "type": "function"
    },
    {
      "constant": true,
      "inputs": [],
      "name": "hardcap",
      "outputs": [
        {
          "name": "",
          "type": "uint256"
        }
      ],
      "payable": false,
      "stateMutability": "view",
      "type": "function"
    },
    {
      "constant": false,
      "inputs": [
        {
          "name": "number",
          "type": "uint8"
        },
        {
          "name": "period",
          "type": "uint256"
        },
        {
          "name": "bonus",
          "type": "uint256"
        }
      ],
      "name": "changeMilestone",
      "outputs": [],
      "payable": false,
      "stateMutability": "nonpayable",
      "type": "function"
    },
    {
      "constant": true,
      "inputs": [],
      "name": "start",
      "outputs": [
        {
          "name": "",
          "type": "uint256"
        }
      ],
      "payable": false,
      "stateMutability": "view",
      "type": "function"
    },
    {
      "constant": true,
      "inputs": [],
      "name": "lockAfterManuallyMint",
      "outputs": [
        {
          "name": "",
          "type": "bool"
        }
      ],
      "payable": false,
      "stateMutability": "view",
      "type": "function"
    },
    {
      "constant": false,
      "inputs": [
        {
          "name": "to",
          "type": "address"
        },
        {
          "name": "_invested",
          "type": "uint256"
        }
      ],
      "name": "mintTokensByETHExternal",
      "outputs": [],
      "payable": false,
      "stateMutability": "nonpayable",
      "type": "function"
    },
    {
      "constant": true,
      "inputs": [],
      "name": "invested",
      "outputs": [
        {
          "name": "",
          "type": "uint256"
        }
      ],
      "payable": false,
      "stateMutability": "view",
      "type": "function"
    },
    {
      "constant": true,
      "inputs": [],
      "name": "totalPeriod",
      "outputs": [
        {
          "name": "",
          "type": "uint256"
        }
      ],
      "payable": false,
      "stateMutability": "view",
      "type": "function"
    },
    {
      "constant": true,
      "inputs": [],
      "name": "minInvestedLimit",
      "outputs": [
        {
          "name": "",
          "type": "uint256"
        }
      ],
      "payable": false,
      "stateMutability": "view",
      "type": "function"
    },
    {
      "constant": false,
      "inputs": [
        {
          "name": "newWallet",
          "type": "address"
        }
      ],
      "name": "setWallet",
      "outputs": [],
      "payable": false,
      "stateMutability": "nonpayable",
      "type": "function"
    },
    {
      "constant": false,
      "inputs": [
        {
          "name": "newHardcap",
          "type": "uint256"
        }
      ],
      "name": "setHardcap",
      "outputs": [],
      "payable": false,
      "stateMutability": "nonpayable",
      "type": "function"
    },
    {
      "constant": true,
      "inputs": [
        {
          "name": "",
          "type": "uint256"
        }
      ],
      "name": "milestones",
      "outputs": [
        {
          "name": "period",
          "type": "uint256"
        },
        {
          "name": "bonus",
          "type": "uint256"
        }
      ],
      "payable": false,
      "stateMutability": "view",
      "type": "function"
    },
    {
      "constant": false,
      "inputs": [
        {
          "name": "newLockAfterManuallyMint",
          "type": "bool"
        }
      ],
      "name": "setLockAfterManuallyMint",
      "outputs": [],
      "payable": false,
      "stateMutability": "nonpayable",
      "type": "function"
    },
    {
      "constant": false,
      "inputs": [
        {
          "name": "_newOwner",
          "type": "address"
        }
      ],
      "name": "transferOwnership",
      "outputs": [],
      "payable": false,
      "stateMutability": "nonpayable",
      "type": "function"
    },
    {
      "constant": false,
      "inputs": [
        {
          "name": "newStart",
          "type": "uint256"
        }
      ],
      "name": "setStart",
      "outputs": [],
      "payable": false,
      "stateMutability": "nonpayable",
      "type": "function"
    },
    {
      "constant": true,
      "inputs": [],
      "name": "token",
      "outputs": [
        {
          "name": "",
          "type": "address"
        }
      ],
      "payable": false,
      "stateMutability": "view",
      "type": "function"
    },
    {
      "constant": false,
      "inputs": [],
      "name": "cleanWallets",
      "outputs": [],
      "payable": false,
      "stateMutability": "nonpayable",
      "type": "function"
    },
    {
      "constant": true,
      "inputs": [
        {
          "name": "start",
          "type": "uint256"
        }
      ],
      "name": "lastSaleDate",
      "outputs": [
        {
          "name": "",
          "type": "uint256"
        }
      ],
      "payable": false,
      "stateMutability": "view",
      "type": "function"
    },
    {
      "payable": true,
      "stateMutability": "payable",
      "type": "fallback"
    },
    {
      "anonymous": false,
      "inputs": [
        {
          "indexed": true,
          "name": "previousOwner",
          "type": "address"
        }
      ],
      "name": "OwnershipRenounced",
      "type": "event"
    },
    {
      "anonymous": false,
      "inputs": [
        {
          "indexed": true,
          "name": "previousOwner",
          "type": "address"
        },
        {
          "indexed": true,
          "name": "newOwner",
          "type": "address"
        }
      ],
      "name": "OwnershipTransferred",
      "type": "event"
    },
    {
      "constant": true,
      "inputs": [],
      "name": "endSaleDate",
      "outputs": [
        {
          "name": "",
          "type": "uint256"
        }
      ],
      "payable": false,
      "stateMutability": "view",
      "type": "function"
    },
    {
      "constant": false,
      "inputs": [],
      "name": "finish",
      "outputs": [],
      "payable": false,
      "stateMutability": "nonpayable",
      "type": "function"
    }
  ],
  "bytecode": "0x6080604052606460038190556007556010805460ff1916600117905560008054600160a060020a031916331790556117708061003c6000396000f3006080604052600436106101ea5763ffffffff60e060020a6000350416630a2a9a0181146101f5578063144fa6d71461021b578063480b890d1461023c5780634c94ac6a14610254578063521eb273146102695780635601477b1461029a5780636341ca0b146102b55780636793c8e1146102dc5780636abc3fe4146103065780636d6908bd1461031b578063715018a614610375578063769ffb7d1461038a5780637ad71f72146103ab5780637e00d77a146103c35780638090114f146103d85780638da5cb5b146103ed57806391b7f5ed146104025780639bf6eb601461041a5780639dc905bb1461043e578063a035b1fe1461045f578063a34d927014610474578063aa525c551461048c578063ab36e4a6146104a7578063b071cbe6146104bc578063bd17647f146104d1578063be9a6555146104f2578063c1aa721d14610507578063ca1e5bb714610530578063cafb220214610554578063ce14a46e14610569578063d56b28891461057e578063d64196f814610593578063d7d88043146105a8578063deaa59df146105bd578063e28fa27d146105de578063e89e4ed6146105f6578063ea3342e814610627578063f2fde38b14610641578063f6a03ebf14610662578063fc0c546a1461067a578063fcf401701461068f578063fd83da09146106a4575b6101f26106bc565b50005b34801561020157600080fd5b50610219600160a060020a0360043516602435610747565b005b34801561022757600080fd5b50610219600160a060020a03600435166107c7565b34801561024857600080fd5b5061021960043561080d565b34801561026057600080fd5b50610219610829565b34801561027557600080fd5b5061027e6108a3565b60408051600160a060020a039092168252519081900360200190f35b3480156102a657600080fd5b506102196004356024356108b2565b3480156102c157600080fd5b50610219600160a060020a0360043581169060243516610960565b3480156102e857600080fd5b506102f4600435610a90565b60408051918252519081900360200190f35b34801561031257600080fd5b5061027e610b2c565b34801561032757600080fd5b5060408051602060046024803582810135848102808701860190975280865261021996843596369660449591949091019291829185019084908082843750949750610b3b9650505050505050565b34801561038157600080fd5b50610219610c19565b34801561039657600080fd5b50610219600160a060020a0360043516610c85565b3480156103b757600080fd5b5061027e600435610ccb565b3480156103cf57600080fd5b50610219610cf3565b3480156103e457600080fd5b506102f4610ed4565b3480156103f957600080fd5b5061027e610eda565b34801561040e57600080fd5b50610219600435610ee9565b34801561042657600080fd5b50610219600160a060020a0360043516602435610f05565b34801561044a57600080fd5b5061021960ff60043516602435604435610f41565b34801561046b57600080fd5b506102f4611049565b34801561048057600080fd5b5061021960043561104f565b34801561049857600080fd5b5061021960ff6004351661106b565b3480156104b357600080fd5b506102f461117a565b3480156104c857600080fd5b506102f4611181565b3480156104dd57600080fd5b5061021960ff60043516602435604435611187565b3480156104fe57600080fd5b506102f4611213565b34801561051357600080fd5b5061051c611219565b604080519115158252519081900360200190f35b34801561053c57600080fd5b50610219600160a060020a0360043516602435611222565b34801561056057600080fd5b506102f4611263565b34801561057557600080fd5b506102f4611269565b34801561058a57600080fd5b5061021961126f565b34801561059f57600080fd5b506102f461130b565b3480156105b457600080fd5b506102f4611311565b3480156105c957600080fd5b50610219600160a060020a0360043516611323565b3480156105ea57600080fd5b50610219600435611369565b34801561060257600080fd5b5061060e600435611385565b6040805192835260208301919091528051918290030190f35b34801561063357600080fd5b5061021960043515156113b1565b34801561064d57600080fd5b50610219600160a060020a03600435166113db565b34801561066e57600080fd5b506102196004356113fe565b34801561068657600080fd5b5061027e61141a565b34801561069b57600080fd5b50610219611429565b3480156106b057600080fd5b506102f460043561144d565b600034600d5481101515156106d057600080fd5b600c5442101580156106e857506106e5611311565b42105b15156106f357600080fd5b600254604051600160a060020a03909116903480156108fc02916000818181858888f1935050505015801561072c573d6000803e3d6000fd5b5061073634611459565b6107403334611472565b91505b5090565b600054600160a060020a0316331461075e57600080fd5b60058054600181019091557f036b6384b5eca791c62761152d0c79bb0604c104a5fb6f4eb0703f3154bb3db0018054600160a060020a0390931673ffffffffffffffffffffffffffffffffffffffff199093168317905560009182526006602052604090912055565b600054600160a060020a031633146107de57600080fd5b600e805473ffffffffffffffffffffffffffffffffffffffff1916600160a060020a0392909216919091179055565b600054600160a060020a0316331461082457600080fd5b600355565b60008054600160a060020a0316331461084157600080fd5b60095460001061085057600080fd5b5060005b60095481101561088d57600980548290811061086c57fe5b60009182526020822060029091020181815560019081019190915501610854565b600061089a6009826116ba565b50506000600855565b600254600160a060020a031681565b600054600160a060020a031633146108c957600080fd5b600082116108d657600080fd5b60408051808201909152828152602081018281526009805460018101825560009190915291517f6e1540171b6c0c960b71a7020d9f60077f6af931a8bbf590da0223dacf75c7af600290930292830155517f6e1540171b6c0c960b71a7020d9f60077f6af931a8bbf590da0223dacf75c7b09091015560085461095990836114a3565b6008555050565b60008054600160a060020a0316331461097857600080fd5b50604080517f70a0823100000000000000000000000000000000000000000000000000000000815230600482015290518291600160a060020a0383169163a9059cbb91869184916370a082319160248083019260209291908290030181600087803b1580156109e657600080fd5b505af11580156109fa573d6000803e3d6000fd5b505050506040513d6020811015610a1057600080fd5b50516040805160e060020a63ffffffff8616028152600160a060020a03909316600484015260248301919091525160448083019260209291908290030181600087803b158015610a5f57600080fd5b505af1158015610a73573d6000803e3d6000fd5b505050506040513d6020811015610a8957600080fd5b5050505050565b600081815b600954811015610b2057814210158015610ad457506009805482908110610ab857fe5b9060005260206000209060020201600001546201518002820142105b15610ae157809250610b25565b610b16600982815481101515610af357fe5b60009182526020909120600290910201548390620151800263ffffffff6114a316565b9150600101610a95565b600080fd5b5050919050565b600a54600160a060020a031681565b60008054600160a060020a03163314610b5357600080fd5b5060005b8151811015610c14576004548251600160a060020a03909116906340c10f1990849084908110610b8357fe5b90602001906020020151856040518363ffffffff1660e060020a0281526004018083600160a060020a0316600160a060020a0316815260200182815260200192505050602060405180830381600087803b158015610be057600080fd5b505af1158015610bf4573d6000803e3d6000fd5b505050506040513d6020811015610c0a57600080fd5b5050600101610b57565b505050565b600054600160a060020a03163314610c3057600080fd5b60008054604051600160a060020a03909116917ff8df31144d9c2f0f6b59d69b8b98abd5459d07f2742c4df920b25aae33c6482091a26000805473ffffffffffffffffffffffffffffffffffffffff19169055565b600054600160a060020a03163314610c9c57600080fd5b600a805473ffffffffffffffffffffffffffffffffffffffff1916600160a060020a0392909216919091179055565b6005805482908110610cd957fe5b600091825260209091200154600160a060020a0316905081565b600080548190819081908190600160a060020a03163314610d1357600080fd5b60009450600093505b600554841015610d7b57610d6e60066000600587815481101515610d3c57fe5b6000918252602080832090910154600160a060020a03168352820192909252604001902054869063ffffffff6114a316565b9450600190930192610d1c565b60048054604080517f18160ddd0000000000000000000000000000000000000000000000000000000081529051600160a060020a03909216926318160ddd9282820192602092908290030181600087803b158015610dd857600080fd5b505af1158015610dec573d6000803e3d6000fd5b505050506040513d6020811015610e0257600080fd5b5051600754909350610e3e90610e1e908763ffffffff6114b616565b600754610e3290869063ffffffff6114c816565b9063ffffffff6114f116565b9150600090505b600554811015610a8957610ecc600582815481101515610e6157fe5b600091825260208220015460075460058054600160a060020a0390931693610ec793610e32926006929189908110610e9557fe5b6000918252602080832090910154600160a060020a03168352820192909252604001902054879063ffffffff6114c816565b611506565b600101610e45565b60075481565b600054600160a060020a031681565b600054600160a060020a03163314610f0057600080fd5b600b55565b600a54600160a060020a0316331480610f285750600054600160a060020a031633145b1515610f3357600080fd5b610f3d8282611506565b5050565b60008054600160a060020a03163314610f5957600080fd5b60095460ff851610610f6a57600080fd5b600854610f7d908463ffffffff6114a316565b6008556009805490610f9290600183016116ba565b5050600954600119015b8360ff16811115610ffc576009805482908110610fb557fe5b9060005260206000209060020201600982600101815481101515610fd557fe5b60009182526020909120825460029092020190815560019182015491015560001901610f9c565b60408051808201909152838152602081018390526009805460ff600188011690811061102457fe5b6000918252602091829020835160029092020190815591015160019091015550505050565b600b5481565b600054600160a060020a0316331461106657600080fd5b600d55565b600080548190600160a060020a0316331461108557600080fd5b60095460ff84161061109657600080fd5b6009805460ff85169081106110a757fe5b906000526020600020906002020191506110d082600001546008546114b690919063ffffffff16565b6008556009805460ff85169081106110e457fe5b600091825260208220600290910201818155600101555060ff82165b6009546000190181101561116157600980546001830190811061111f57fe5b906000526020600020906002020160098281548110151561113c57fe5b6000918252602090912082546002909202019081556001918201549082015501611100565b60098054906111749060001983016116ba565b50505050565b6009545b90565b600f5481565b60008054600160a060020a0316331461119f57600080fd5b60095460ff8516106111b057600080fd5b6009805460ff86169081106111c157fe5b906000526020600020906002020190506111ea81600001546008546114b690919063ffffffff16565b6008908155838255600182018390555461120a908463ffffffff6114a316565b60085550505050565b600c5481565b60105460ff1681565b600a54600160a060020a03163314806112455750600054600160a060020a031633145b151561125057600080fd5b61125981611459565b610c148282611472565b60015481565b60085481565b600054600160a060020a0316331461128657600080fd5b61128e610cf3565b600e60009054906101000a9004600160a060020a0316600160a060020a0316637d64bcb46040518163ffffffff1660e060020a028152600401602060405180830381600087803b1580156112e157600080fd5b505af11580156112f5573d6000803e3d6000fd5b505050506040513d6020811015610f3d57600080fd5b600d5481565b600061131e600c5461144d565b905090565b600054600160a060020a0316331461133a57600080fd5b6002805473ffffffffffffffffffffffffffffffffffffffff1916600160a060020a0392909216919091179055565b600054600160a060020a0316331461138057600080fd5b600f55565b600980548290811061139357fe5b60009182526020909120600290910201805460019091015490915082565b600054600160a060020a031633146113c857600080fd5b6010805460ff1916911515919091179055565b600054600160a060020a031633146113f257600080fd5b6113fb816115a3565b50565b600054600160a060020a0316331461141557600080fd5b600c55565b600e54600160a060020a031681565b600054600160a060020a0316331461144057600080fd5b60006113fb6005826116e6565b60085462015180020190565b60015461146c908263ffffffff6114a316565b60015550565b600080600f5460015410151561148757600080fd5b61149083611620565b905061149c8482611506565b9392505050565b818101828110156114b057fe5b92915050565b6000828211156114c257fe5b50900390565b60008215156114d9575060006114b0565b508181028183828115156114e957fe5b04146114b057fe5b600081838115156114fe57fe5b049392505050565b60048054604080517f40c10f19000000000000000000000000000000000000000000000000000000008152600160a060020a038681169482019490945260248101859052905192909116916340c10f19916044808201926020929091908290030181600087803b15801561157957600080fd5b505af115801561158d573d6000803e3d6000fd5b505050506040513d602081101561117457600080fd5b600160a060020a03811615156115b857600080fd5b60008054604051600160a060020a03808516939216917f8be0079c531659141344cd1fd0a4f28419497f9722a3daafe3b4186f6b6457e091a36000805473ffffffffffffffffffffffffffffffffffffffff1916600160a060020a0392909216919091179055565b600080600080611631600c54610a90565b925060098381548110151561164257fe5b90600052602060002090600202019150611673670de0b6b3a7640000610e32600b54886114c890919063ffffffff16565b90506000826001015411156116b2576116af6116a2600754610e328560010154856114c890919063ffffffff16565b829063ffffffff6114a316565b90505b949350505050565b815481835581811115610c1457600202816002028360005260206000209182019101610c14919061170a565b815481835581811115610c1457600083815260209020610c1491810190830161172a565b61117e91905b808211156107435760008082556001820155600201611710565b61117e91905b8082111561074357600081556001016117305600a165627a7a72305820ecb42ce823a5e08f7e05b4eb0a68bed14a5a40cc0f21ade72e1f5f695e4f829f0029",
  "source": "pragma solidity ^0.4.24;\n\nimport './AssembledCommonSale.sol';\nimport './StagedCrowdsale.sol';\nimport './ExtendedWalletsMintTokensFeature.sol';\n\ncontract ITO is ExtendedWalletsMintTokensFeature, StagedCrowdsale, AssembledCommonSale {\n\n  function endSaleDate() public view returns(uint) {\n    return lastSaleDate(start);\n  }\n\n  function calculateTokens(uint _invested) internal returns(uint) {\n    uint milestoneIndex = currentMilestone(start);\n    Milestone storage milestone = milestones[milestoneIndex];\n    uint tokens = _invested.mul(price).div(1 ether);\n    if(milestone.bonus > 0) {\n      tokens = tokens.add(tokens.mul(milestone.bonus).div(percentRate));\n    }\n    return tokens;\n  }\n\n  function finish() public onlyOwner {\n    mintExtendedTokens();\n    token.finishMinting();\n  }\n\n}\n",
  "sourcePath": "/home/iceberg/projects/FRS/contracts/ITO.sol",
  "compiler": {
    "name": "solc",
    "version": "0.4.24+commit.e67f0147.Emscripten.clang"
  },
  "schemaVersion": "2.0.1",
  "updatedAt": "2018-07-05T16:53:10.532Z"
}