{
  "contractName": "MintableToken",
  "abi": [
    {
      "constant": true,
      "inputs": [],
      "name": "mintingFinished",
      "outputs": [
        {
          "name": "",
          "type": "bool"
        }
      ],
      "payable": false,
      "stateMutability": "view",
      "type": "function"
    },
    {
      "constant": false,
      "inputs": [
        {
          "name": "_spender",
          "type": "address"
        },
        {
          "name": "_value",
          "type": "uint256"
        }
      ],
      "name": "approve",
      "outputs": [
        {
          "name": "",
          "type": "bool"
        }
      ],
      "payable": false,
      "stateMutability": "nonpayable",
      "type": "function"
    },
    {
      "constant": true,
      "inputs": [],
      "name": "totalSupply",
      "outputs": [
        {
          "name": "",
          "type": "uint256"
        }
      ],
      "payable": false,
      "stateMutability": "view",
      "type": "function"
    },
    {
      "constant": false,
      "inputs": [
        {
          "name": "_spender",
          "type": "address"
        },
        {
          "name": "_subtractedValue",
          "type": "uint256"
        }
      ],
      "name": "decreaseApproval",
      "outputs": [
        {
          "name": "",
          "type": "bool"
        }
      ],
      "payable": false,
      "stateMutability": "nonpayable",
      "type": "function"
    },
    {
      "constant": true,
      "inputs": [
        {
          "name": "_owner",
          "type": "address"
        }
      ],
      "name": "balanceOf",
      "outputs": [
        {
          "name": "",
          "type": "uint256"
        }
      ],
      "payable": false,
      "stateMutability": "view",
      "type": "function"
    },
    {
      "constant": false,
      "inputs": [],
      "name": "renounceOwnership",
      "outputs": [],
      "payable": false,
      "stateMutability": "nonpayable",
      "type": "function"
    },
    {
      "constant": true,
      "inputs": [],
      "name": "owner",
      "outputs": [
        {
          "name": "",
          "type": "address"
        }
      ],
      "payable": false,
      "stateMutability": "view",
      "type": "function"
    },
    {
      "constant": true,
      "inputs": [
        {
          "name": "",
          "type": "uint256"
        }
      ],
      "name": "tokenHolders",
      "outputs": [
        {
          "name": "",
          "type": "address"
        }
      ],
      "payable": false,
      "stateMutability": "view",
      "type": "function"
    },
    {
      "constant": true,
      "inputs": [],
      "name": "saleAgent",
      "outputs": [
        {
          "name": "",
          "type": "address"
        }
      ],
      "payable": false,
      "stateMutability": "view",
      "type": "function"
    },
    {
      "constant": false,
      "inputs": [
        {
          "name": "_spender",
          "type": "address"
        },
        {
          "name": "_addedValue",
          "type": "uint256"
        }
      ],
      "name": "increaseApproval",
      "outputs": [
        {
          "name": "",
          "type": "bool"
        }
      ],
      "payable": false,
      "stateMutability": "nonpayable",
      "type": "function"
    },
    {
      "constant": true,
      "inputs": [
        {
          "name": "",
          "type": "address"
        }
      ],
      "name": "unlockedAddressesDuringITO",
      "outputs": [
        {
          "name": "",
          "type": "bool"
        }
      ],
      "payable": false,
      "stateMutability": "view",
      "type": "function"
    },
    {
      "constant": true,
      "inputs": [
        {
          "name": "_owner",
          "type": "address"
        },
        {
          "name": "_spender",
          "type": "address"
        }
      ],
      "name": "allowance",
      "outputs": [
        {
          "name": "",
          "type": "uint256"
        }
      ],
      "payable": false,
      "stateMutability": "view",
      "type": "function"
    },
    {
      "constant": false,
      "inputs": [
        {
          "name": "_newOwner",
          "type": "address"
        }
      ],
      "name": "transferOwnership",
      "outputs": [],
      "payable": false,
      "stateMutability": "nonpayable",
      "type": "function"
    },
    {
      "anonymous": false,
      "inputs": [
        {
          "indexed": true,
          "name": "to",
          "type": "address"
        },
        {
          "indexed": false,
          "name": "amount",
          "type": "uint256"
        }
      ],
      "name": "Mint",
      "type": "event"
    },
    {
      "anonymous": false,
      "inputs": [],
      "name": "MintFinished",
      "type": "event"
    },
    {
      "anonymous": false,
      "inputs": [
        {
          "indexed": true,
          "name": "previousOwner",
          "type": "address"
        }
      ],
      "name": "OwnershipRenounced",
      "type": "event"
    },
    {
      "anonymous": false,
      "inputs": [
        {
          "indexed": true,
          "name": "previousOwner",
          "type": "address"
        },
        {
          "indexed": true,
          "name": "newOwner",
          "type": "address"
        }
      ],
      "name": "OwnershipTransferred",
      "type": "event"
    },
    {
      "anonymous": false,
      "inputs": [
        {
          "indexed": true,
          "name": "owner",
          "type": "address"
        },
        {
          "indexed": true,
          "name": "spender",
          "type": "address"
        },
        {
          "indexed": false,
          "name": "value",
          "type": "uint256"
        }
      ],
      "name": "Approval",
      "type": "event"
    },
    {
      "anonymous": false,
      "inputs": [
        {
          "indexed": true,
          "name": "from",
          "type": "address"
        },
        {
          "indexed": true,
          "name": "to",
          "type": "address"
        },
        {
          "indexed": false,
          "name": "value",
          "type": "uint256"
        }
      ],
      "name": "Transfer",
      "type": "event"
    },
    {
      "constant": false,
      "inputs": [
        {
          "name": "addressToUnlock",
          "type": "address"
        }
      ],
      "name": "unlockAddressDuringITO",
      "outputs": [],
      "payable": false,
      "stateMutability": "nonpayable",
      "type": "function"
    },
    {
      "constant": false,
      "inputs": [
        {
          "name": "newSaleAgnet",
          "type": "address"
        }
      ],
      "name": "setSaleAgent",
      "outputs": [],
      "payable": false,
      "stateMutability": "nonpayable",
      "type": "function"
    },
    {
      "constant": false,
      "inputs": [
        {
          "name": "_to",
          "type": "address"
        },
        {
          "name": "_amount",
          "type": "uint256"
        }
      ],
      "name": "mint",
      "outputs": [
        {
          "name": "",
          "type": "bool"
        }
      ],
      "payable": false,
      "stateMutability": "nonpayable",
      "type": "function"
    },
    {
      "constant": false,
      "inputs": [],
      "name": "finishMinting",
      "outputs": [
        {
          "name": "",
          "type": "bool"
        }
      ],
      "payable": false,
      "stateMutability": "nonpayable",
      "type": "function"
    },
    {
      "constant": false,
      "inputs": [
        {
          "name": "_to",
          "type": "address"
        },
        {
          "name": "_value",
          "type": "uint256"
        }
      ],
      "name": "transfer",
      "outputs": [
        {
          "name": "",
          "type": "bool"
        }
      ],
      "payable": false,
      "stateMutability": "nonpayable",
      "type": "function"
    },
    {
      "constant": false,
      "inputs": [
        {
          "name": "from",
          "type": "address"
        },
        {
          "name": "to",
          "type": "address"
        },
        {
          "name": "value",
          "type": "uint256"
        }
      ],
      "name": "transferFrom",
      "outputs": [
        {
          "name": "",
          "type": "bool"
        }
      ],
      "payable": false,
      "stateMutability": "nonpayable",
      "type": "function"
    }
  ],
  "bytecode": "0x608060405260038054600160a860020a03191633179055610dfe806100256000396000f3006080604052600436106101065763ffffffff7c010000000000000000000000000000000000000000000000000000000060003504166305d2035b811461010b578063095ea7b31461013457806314133a7c1461015857806318160ddd1461017b57806323b872dd146101a25780632e4dde60146101cc57806340c10f19146101ed578063661884631461021157806370a0823114610235578063715018a6146102565780637d64bcb41461026b5780638da5cb5b14610280578063923108d9146102b1578063a9059cbb146102c9578063b1d6a2f0146102ed578063d73dd62314610302578063db0d7a3814610326578063dd62ed3e14610347578063f2fde38b1461036e575b600080fd5b34801561011757600080fd5b5061012061038f565b604080519115158252519081900360200190f35b34801561014057600080fd5b50610120600160a060020a036004351660243561039f565b34801561016457600080fd5b50610179600160a060020a0360043516610405565b005b34801561018757600080fd5b50610190610462565b60408051918252519081900360200190f35b3480156101ae57600080fd5b50610120600160a060020a0360043581169060243516604435610468565b3480156101d857600080fd5b50610179600160a060020a0360043516610501565b3480156101f957600080fd5b50610120600160a060020a0360043516602435610553565b34801561021d57600080fd5b50610120600160a060020a03600435166024356106eb565b34801561024157600080fd5b50610190600160a060020a03600435166107db565b34801561026257600080fd5b506101796107f6565b34801561027757600080fd5b50610120610864565b34801561028c57600080fd5b506102956108fe565b60408051600160a060020a039092168252519081900360200190f35b3480156102bd57600080fd5b5061029560043561090d565b3480156102d557600080fd5b50610120600160a060020a0360043516602435610935565b3480156102f957600080fd5b506102956109cc565b34801561030e57600080fd5b50610120600160a060020a03600435166024356109db565b34801561033257600080fd5b50610120600160a060020a0360043516610a74565b34801561035357600080fd5b50610190600160a060020a0360043581169060243516610a89565b34801561037a57600080fd5b50610179600160a060020a0360043516610ab4565b60035460a060020a900460ff1681565b336000818152600260209081526040808320600160a060020a038716808552908352818420869055815186815291519394909390927f8c5be1e5ebec7d5bd14f71427d1e84f3dd0314c0f7b2291e5b200ac8c7c3b925928290030190a350600192915050565b600454600160a060020a03163314806104285750600354600160a060020a031633145b151561043357600080fd5b6004805473ffffffffffffffffffffffffffffffffffffffff1916600160a060020a0392909216919091179055565b60015490565b600354600090849060a060020a900460ff16806104925750600454600160a060020a038281169116145b806104aa5750600354600160a060020a038281169116145b806104e2575060035460a060020a900460ff161580156104e25750600160a060020a03811660009081526005602052604090205460ff165b15156104ed57600080fd5b6104f8858585610ad7565b95945050505050565b600454600160a060020a03163314806105245750600354600160a060020a031633145b151561052f57600080fd5b600160a060020a03166000908152600560205260409020805460ff19166001179055565b600454600090600160a060020a03163314806105795750600354600160a060020a031633145b801561058f575060035460a060020a900460ff16155b151561059a57600080fd5b600160a060020a038316600090815260208190526040902054151561061257600680546001810182556000919091527ff652222313e28459528d920b65115c16c04f3efc82aaedc97be59f3f377c0d3f01805473ffffffffffffffffffffffffffffffffffffffff1916600160a060020a0385161790555b600154610625908363ffffffff610c4e16565b600155600160a060020a038316600090815260208190526040902054610651908363ffffffff610c4e16565b600160a060020a03841660008181526020818152604091829020939093558051858152905191927f0f6798a560793a54c3bcfe86a93cde1e73087d944c0ea20544137d412139688592918290030190a2604080518381529051600160a060020a038516916000917fddf252ad1be2c89b69c2b068fc378daa952ba7f163c4a11628f55a4df523b3ef9181900360200190a350600192915050565b336000908152600260209081526040808320600160a060020a03861684529091528120548083111561074057336000908152600260209081526040808320600160a060020a0388168452909152812055610775565b610750818463ffffffff610c6116565b336000908152600260209081526040808320600160a060020a03891684529091529020555b336000818152600260209081526040808320600160a060020a0389168085529083529281902054815190815290519293927f8c5be1e5ebec7d5bd14f71427d1e84f3dd0314c0f7b2291e5b200ac8c7c3b925929181900390910190a35060019392505050565b600160a060020a031660009081526020819052604090205490565b600354600160a060020a0316331461080d57600080fd5b600354604051600160a060020a03909116907ff8df31144d9c2f0f6b59d69b8b98abd5459d07f2742c4df920b25aae33c6482090600090a26003805473ffffffffffffffffffffffffffffffffffffffff19169055565b600454600090600160a060020a031633148061088a5750600354600160a060020a031633145b80156108a0575060035460a060020a900460ff16155b15156108ab57600080fd5b6003805474ff0000000000000000000000000000000000000000191660a060020a1790556040517fae5184fba832cb2b1f702aca6117b8d265eaf03ad33eb133f19dde0f5920fa0890600090a150600190565b600354600160a060020a031681565b600680548290811061091b57fe5b600091825260209091200154600160a060020a0316905081565b600354600090339060a060020a900460ff168061095f5750600454600160a060020a038281169116145b806109775750600354600160a060020a038281169116145b806109af575060035460a060020a900460ff161580156109af5750600160a060020a03811660009081526005602052604090205460ff165b15156109ba57600080fd5b6109c48484610c73565b949350505050565b600454600160a060020a031681565b336000908152600260209081526040808320600160a060020a0386168452909152812054610a0f908363ffffffff610c4e16565b336000818152600260209081526040808320600160a060020a0389168085529083529281902085905580519485525191937f8c5be1e5ebec7d5bd14f71427d1e84f3dd0314c0f7b2291e5b200ac8c7c3b925929081900390910190a350600192915050565b60056020526000908152604090205460ff1681565b600160a060020a03918216600090815260026020908152604080832093909416825291909152205490565b600354600160a060020a03163314610acb57600080fd5b610ad481610d54565b50565b6000600160a060020a0383161515610aee57600080fd5b600160a060020a038416600090815260208190526040902054821115610b1357600080fd5b600160a060020a0384166000908152600260209081526040808320338452909152902054821115610b4357600080fd5b600160a060020a038416600090815260208190526040902054610b6c908363ffffffff610c6116565b600160a060020a038086166000908152602081905260408082209390935590851681522054610ba1908363ffffffff610c4e16565b600160a060020a03808516600090815260208181526040808320949094559187168152600282528281203382529091522054610be3908363ffffffff610c6116565b600160a060020a03808616600081815260026020908152604080832033845282529182902094909455805186815290519287169391927fddf252ad1be2c89b69c2b068fc378daa952ba7f163c4a11628f55a4df523b3ef929181900390910190a35060019392505050565b81810182811015610c5b57fe5b92915050565b600082821115610c6d57fe5b50900390565b6000600160a060020a0383161515610c8a57600080fd5b33600090815260208190526040902054821115610ca657600080fd5b33600090815260208190526040902054610cc6908363ffffffff610c6116565b3360009081526020819052604080822092909255600160a060020a03851681522054610cf8908363ffffffff610c4e16565b600160a060020a038416600081815260208181526040918290209390935580518581529051919233927fddf252ad1be2c89b69c2b068fc378daa952ba7f163c4a11628f55a4df523b3ef9281900390910190a350600192915050565b600160a060020a0381161515610d6957600080fd5b600354604051600160a060020a038084169216907f8be0079c531659141344cd1fd0a4f28419497f9722a3daafe3b4186f6b6457e090600090a36003805473ffffffffffffffffffffffffffffffffffffffff1916600160a060020a03929092169190911790555600a165627a7a72305820c47046f0ddbe1d0f53f7fd4ef4ec9e02f72c5ca26c6204ad3cbeca154eab044c0029",
  "source": "pragma solidity ^0.4.24;\n\nimport './ownership/Ownable.sol';\nimport './token/StandardToken.sol';\n\ncontract MintableToken is StandardToken, Ownable {\n\n  event Mint(address indexed to, uint256 amount);\n\n  event MintFinished();\n\n  bool public mintingFinished = false;\n\n  address public saleAgent;\n\n  mapping(address => bool) public unlockedAddressesDuringITO;\n\n  address[] public tokenHolders;\n\n  modifier onlyOwnerOrSaleAgent() {\n    require(msg.sender == saleAgent || msg.sender == owner);\n    _;\n  }\n\n  function unlockAddressDuringITO(address addressToUnlock) public onlyOwnerOrSaleAgent {\n    unlockedAddressesDuringITO[addressToUnlock] = true;\n  }\n\n  modifier notLocked(address sender) {\n    require(mintingFinished ||\n            sender == saleAgent || \n            sender == owner ||\n            (!mintingFinished && unlockedAddressesDuringITO[sender]));\n    _;\n  }\n\n  function setSaleAgent(address newSaleAgnet) public onlyOwnerOrSaleAgent {\n    saleAgent = newSaleAgnet;\n  }\n\n  function mint(address _to, uint256 _amount) public returns (bool) {\n    require((msg.sender == saleAgent || msg.sender == owner) && !mintingFinished);\n    if(balances[_to] == 0) tokenHolders.push(_to);\n    totalSupply_ = totalSupply_.add(_amount);\n    balances[_to] = balances[_to].add(_amount);\n    emit Mint(_to, _amount);\n    emit Transfer(address(0), _to, _amount);\n    return true;\n  }\n\n  /**\n   * @dev Function to stop minting new tokens.\n   * @return True if the operation was successful.\n   */\n  function finishMinting() public returns (bool) {\n    require((msg.sender == saleAgent || msg.sender == owner) && !mintingFinished);\n    mintingFinished = true;\n    emit MintFinished();\n    return true;\n  }\n\n  function transfer(address _to, uint256 _value) public notLocked(msg.sender) returns (bool) {\n    return super.transfer(_to, _value);\n  }\n\n  function transferFrom(address from, address to, uint256 value) public notLocked(from) returns (bool) {\n    return super.transferFrom(from, to, value);\n  }\n\n}\n",
  "sourcePath": "/home/iceberg/projects/FRS/contracts/MintableToken.sol",
  "compiler": {
    "name": "solc",
    "version": "0.4.24+commit.e67f0147.Emscripten.clang"
  },
  "schemaVersion": "2.0.1",
  "updatedAt": "2018-07-05T16:53:10.541Z"
}