{
  "contractName": "MintTokensFeature",
  "abi": [
    {
      "constant": false,
      "inputs": [
        {
          "name": "newToken",
          "type": "address"
        }
      ],
      "name": "setToken",
      "outputs": [],
      "payable": false,
      "stateMutability": "nonpayable",
      "type": "function"
    },
    {
      "constant": false,
      "inputs": [],
      "name": "renounceOwnership",
      "outputs": [],
      "payable": false,
      "stateMutability": "nonpayable",
      "type": "function"
    },
    {
      "constant": true,
      "inputs": [],
      "name": "owner",
      "outputs": [
        {
          "name": "",
          "type": "address"
        }
      ],
      "payable": false,
      "stateMutability": "view",
      "type": "function"
    },
    {
      "constant": false,
      "inputs": [
        {
          "name": "_newOwner",
          "type": "address"
        }
      ],
      "name": "transferOwnership",
      "outputs": [],
      "payable": false,
      "stateMutability": "nonpayable",
      "type": "function"
    },
    {
      "constant": true,
      "inputs": [],
      "name": "token",
      "outputs": [
        {
          "name": "",
          "type": "address"
        }
      ],
      "payable": false,
      "stateMutability": "view",
      "type": "function"
    },
    {
      "anonymous": false,
      "inputs": [
        {
          "indexed": true,
          "name": "previousOwner",
          "type": "address"
        }
      ],
      "name": "OwnershipRenounced",
      "type": "event"
    },
    {
      "anonymous": false,
      "inputs": [
        {
          "indexed": true,
          "name": "previousOwner",
          "type": "address"
        },
        {
          "indexed": true,
          "name": "newOwner",
          "type": "address"
        }
      ],
      "name": "OwnershipTransferred",
      "type": "event"
    },
    {
      "constant": false,
      "inputs": [
        {
          "name": "amount",
          "type": "uint256"
        },
        {
          "name": "to",
          "type": "address[]"
        }
      ],
      "name": "mintTokensBatch",
      "outputs": [],
      "payable": false,
      "stateMutability": "nonpayable",
      "type": "function"
    }
  ],
  "bytecode": "0x608060405260008054600160a060020a03191633179055610408806100256000396000f3006080604052600436106100775763ffffffff7c0100000000000000000000000000000000000000000000000000000000600035041663144fa6d7811461007c5780636d6908bd1461009f578063715018a6146100f95780638da5cb5b1461010e578063f2fde38b1461013f578063fc0c546a14610160575b600080fd5b34801561008857600080fd5b5061009d600160a060020a0360043516610175565b005b3480156100ab57600080fd5b5060408051602060046024803582810135848102808701860190975280865261009d968435963696604495919490910192918291850190849080828437509497506101bb9650505050505050565b34801561010557600080fd5b5061009d6102b2565b34801561011a57600080fd5b5061012361031e565b60408051600160a060020a039092168252519081900360200190f35b34801561014b57600080fd5b5061009d600160a060020a036004351661032d565b34801561016c57600080fd5b50610123610350565b600054600160a060020a0316331461018c57600080fd5b6001805473ffffffffffffffffffffffffffffffffffffffff1916600160a060020a0392909216919091179055565b60008054600160a060020a031633146101d357600080fd5b5060005b81518110156102ad576001548251600160a060020a03909116906340c10f199084908490811061020357fe5b90602001906020020151856040518363ffffffff167c01000000000000000000000000000000000000000000000000000000000281526004018083600160a060020a0316600160a060020a0316815260200182815260200192505050602060405180830381600087803b15801561027957600080fd5b505af115801561028d573d6000803e3d6000fd5b505050506040513d60208110156102a357600080fd5b50506001016101d7565b505050565b600054600160a060020a031633146102c957600080fd5b60008054604051600160a060020a03909116917ff8df31144d9c2f0f6b59d69b8b98abd5459d07f2742c4df920b25aae33c6482091a26000805473ffffffffffffffffffffffffffffffffffffffff19169055565b600054600160a060020a031681565b600054600160a060020a0316331461034457600080fd5b61034d8161035f565b50565b600154600160a060020a031681565b600160a060020a038116151561037457600080fd5b60008054604051600160a060020a03808516939216917f8be0079c531659141344cd1fd0a4f28419497f9722a3daafe3b4186f6b6457e091a36000805473ffffffffffffffffffffffffffffffffffffffff1916600160a060020a03929092169190911790555600a165627a7a72305820770f666c0710a6547d4817a68d37f360220b3a2572e4922a065f3c8ec7f621750029",
  "source": "pragma solidity ^0.4.24;\n\nimport './MintTokensInterface.sol';\n\ncontract MintTokensFeature is MintTokensInterface {\n\n  function mintTokens(address to, uint tokens) internal {\n    token.mint(to, tokens);\n  }\n\n  function mintTokensBatch(uint amount, address[] to) public onlyOwner {\n    for(uint i = 0; i < to.length; i++) {\n      token.mint(to[i], amount);\n    }\n  }\n\n}\n",
  "sourcePath": "/home/iceberg/projects/FRS/contracts/MintTokensFeature.sol",
  "compiler": {
    "name": "solc",
    "version": "0.4.24+commit.e67f0147.Emscripten.clang"
  },
  "schemaVersion": "2.0.1",
  "updatedAt": "2018-07-05T16:53:10.533Z"
}