{
  "contractName": "NextSaleAgentFeature",
  "abi": [
    {
      "constant": false,
      "inputs": [],
      "name": "renounceOwnership",
      "outputs": [],
      "payable": false,
      "stateMutability": "nonpayable",
      "type": "function"
    },
    {
      "constant": true,
      "inputs": [],
      "name": "owner",
      "outputs": [
        {
          "name": "",
          "type": "address"
        }
      ],
      "payable": false,
      "stateMutability": "view",
      "type": "function"
    },
    {
      "constant": true,
      "inputs": [],
      "name": "nextSaleAgent",
      "outputs": [
        {
          "name": "",
          "type": "address"
        }
      ],
      "payable": false,
      "stateMutability": "view",
      "type": "function"
    },
    {
      "constant": false,
      "inputs": [
        {
          "name": "_newOwner",
          "type": "address"
        }
      ],
      "name": "transferOwnership",
      "outputs": [],
      "payable": false,
      "stateMutability": "nonpayable",
      "type": "function"
    },
    {
      "anonymous": false,
      "inputs": [
        {
          "indexed": true,
          "name": "previousOwner",
          "type": "address"
        }
      ],
      "name": "OwnershipRenounced",
      "type": "event"
    },
    {
      "anonymous": false,
      "inputs": [
        {
          "indexed": true,
          "name": "previousOwner",
          "type": "address"
        },
        {
          "indexed": true,
          "name": "newOwner",
          "type": "address"
        }
      ],
      "name": "OwnershipTransferred",
      "type": "event"
    },
    {
      "constant": false,
      "inputs": [
        {
          "name": "newNextSaleAgent",
          "type": "address"
        }
      ],
      "name": "setNextSaleAgent",
      "outputs": [],
      "payable": false,
      "stateMutability": "nonpayable",
      "type": "function"
    }
  ],
  "bytecode": "0x608060405260008054600160a060020a031916331790556102ac806100256000396000f30060806040526004361061006c5763ffffffff7c0100000000000000000000000000000000000000000000000000000000600035041663715018a681146100715780638da5cb5b14610088578063de38460b146100b9578063e4deb007146100ce578063f2fde38b146100ef575b600080fd5b34801561007d57600080fd5b50610086610110565b005b34801561009457600080fd5b5061009d61017c565b60408051600160a060020a039092168252519081900360200190f35b3480156100c557600080fd5b5061009d61018b565b3480156100da57600080fd5b50610086600160a060020a036004351661019a565b3480156100fb57600080fd5b50610086600160a060020a03600435166101e0565b600054600160a060020a0316331461012757600080fd5b60008054604051600160a060020a03909116917ff8df31144d9c2f0f6b59d69b8b98abd5459d07f2742c4df920b25aae33c6482091a26000805473ffffffffffffffffffffffffffffffffffffffff19169055565b600054600160a060020a031681565b600154600160a060020a031681565b600054600160a060020a031633146101b157600080fd5b6001805473ffffffffffffffffffffffffffffffffffffffff1916600160a060020a0392909216919091179055565b600054600160a060020a031633146101f757600080fd5b61020081610203565b50565b600160a060020a038116151561021857600080fd5b60008054604051600160a060020a03808516939216917f8be0079c531659141344cd1fd0a4f28419497f9722a3daafe3b4186f6b6457e091a36000805473ffffffffffffffffffffffffffffffffffffffff1916600160a060020a03929092169190911790555600a165627a7a72305820b1ef1181990e148477b03c43333e0c1b21a4f1ba891c43af757f92f64f23cb0b0029",
  "source": "pragma solidity ^0.4.18;\n\nimport './ownership/Ownable.sol';\n\ncontract NextSaleAgentFeature is Ownable {\n\n  address public nextSaleAgent;\n\n  function setNextSaleAgent(address newNextSaleAgent) public onlyOwner {\n    nextSaleAgent = newNextSaleAgent;\n  }\n\n}\n",
  "sourcePath": "/home/iceberg/projects/FRS/contracts/NextSaleAgentFeature.sol",
  "compiler": {
    "name": "solc",
    "version": "0.4.24+commit.e67f0147.Emscripten.clang"
  },
  "schemaVersion": "2.0.1",
  "updatedAt": "2018-07-05T16:53:10.533Z"
}