{
  "contractName": "PercentRateProvider",
  "abi": [
    {
      "constant": false,
      "inputs": [],
      "name": "renounceOwnership",
      "outputs": [],
      "payable": false,
      "stateMutability": "nonpayable",
      "type": "function"
    },
    {
      "constant": true,
      "inputs": [],
      "name": "percentRate",
      "outputs": [
        {
          "name": "",
          "type": "uint256"
        }
      ],
      "payable": false,
      "stateMutability": "view",
      "type": "function"
    },
    {
      "constant": true,
      "inputs": [],
      "name": "owner",
      "outputs": [
        {
          "name": "",
          "type": "address"
        }
      ],
      "payable": false,
      "stateMutability": "view",
      "type": "function"
    },
    {
      "constant": false,
      "inputs": [
        {
          "name": "_newOwner",
          "type": "address"
        }
      ],
      "name": "transferOwnership",
      "outputs": [],
      "payable": false,
      "stateMutability": "nonpayable",
      "type": "function"
    },
    {
      "anonymous": false,
      "inputs": [
        {
          "indexed": true,
          "name": "previousOwner",
          "type": "address"
        }
      ],
      "name": "OwnershipRenounced",
      "type": "event"
    },
    {
      "anonymous": false,
      "inputs": [
        {
          "indexed": true,
          "name": "previousOwner",
          "type": "address"
        },
        {
          "indexed": true,
          "name": "newOwner",
          "type": "address"
        }
      ],
      "name": "OwnershipTransferred",
      "type": "event"
    },
    {
      "constant": false,
      "inputs": [
        {
          "name": "newPercentRate",
          "type": "uint256"
        }
      ],
      "name": "setPercentRate",
      "outputs": [],
      "payable": false,
      "stateMutability": "nonpayable",
      "type": "function"
    }
  ],
  "bytecode": "0x6080604052606460015560008054600160a060020a031916331790556102828061002a6000396000f30060806040526004361061006c5763ffffffff7c0100000000000000000000000000000000000000000000000000000000600035041663480b890d8114610071578063715018a61461008b5780638090114f146100a05780638da5cb5b146100c7578063f2fde38b146100f8575b600080fd5b34801561007d57600080fd5b50610089600435610119565b005b34801561009757600080fd5b50610089610135565b3480156100ac57600080fd5b506100b56101a1565b60408051918252519081900360200190f35b3480156100d357600080fd5b506100dc6101a7565b60408051600160a060020a039092168252519081900360200190f35b34801561010457600080fd5b50610089600160a060020a03600435166101b6565b600054600160a060020a0316331461013057600080fd5b600155565b600054600160a060020a0316331461014c57600080fd5b60008054604051600160a060020a03909116917ff8df31144d9c2f0f6b59d69b8b98abd5459d07f2742c4df920b25aae33c6482091a26000805473ffffffffffffffffffffffffffffffffffffffff19169055565b60015481565b600054600160a060020a031681565b600054600160a060020a031633146101cd57600080fd5b6101d6816101d9565b50565b600160a060020a03811615156101ee57600080fd5b60008054604051600160a060020a03808516939216917f8be0079c531659141344cd1fd0a4f28419497f9722a3daafe3b4186f6b6457e091a36000805473ffffffffffffffffffffffffffffffffffffffff1916600160a060020a03929092169190911790555600a165627a7a72305820f46fe96f20e1074b6c559731122c2b5e89eb6eea1e4e3d8c0e434a2ddd8cbff60029",
  "source": "pragma solidity ^0.4.18;\n\nimport './ownership/Ownable.sol';\n\ncontract PercentRateProvider is Ownable {\n\n  uint public percentRate = 100;\n\n  function setPercentRate(uint newPercentRate) public onlyOwner {\n    percentRate = newPercentRate;\n  }\n\n}\n\n",
  "sourcePath": "/home/iceberg/projects/FRS/contracts/PercentRateProvider.sol",
  "compiler": {
    "name": "solc",
    "version": "0.4.24+commit.e67f0147.Emscripten.clang"
  },
  "schemaVersion": "2.0.1",
  "updatedAt": "2018-07-05T16:53:10.535Z"
}