{
  "contractName": "PreITO",
  "abi": [
    {
      "constant": false,
      "inputs": [
        {
          "name": "newSoftcap",
          "type": "uint256"
        }
      ],
      "name": "setSoftcap",
      "outputs": [],
      "payable": false,
      "stateMutability": "nonpayable",
      "type": "function"
    },
    {
      "constant": false,
      "inputs": [
        {
          "name": "newToken",
          "type": "address"
        }
      ],
      "name": "setToken",
      "outputs": [],
      "payable": false,
      "stateMutability": "nonpayable",
      "type": "function"
    },
    {
      "constant": true,
      "inputs": [
        {
          "name": "",
          "type": "address"
        }
      ],
      "name": "balances",
      "outputs": [
        {
          "name": "",
          "type": "uint256"
        }
      ],
      "payable": false,
      "stateMutability": "view",
      "type": "function"
    },
    {
      "constant": false,
      "inputs": [],
      "name": "withdraw",
      "outputs": [],
      "payable": false,
      "stateMutability": "nonpayable",
      "type": "function"
    },
    {
      "constant": false,
      "inputs": [
        {
          "name": "newPercentRate",
          "type": "uint256"
        }
      ],
      "name": "setPercentRate",
      "outputs": [],
      "payable": false,
      "stateMutability": "nonpayable",
      "type": "function"
    },
    {
      "constant": true,
      "inputs": [],
      "name": "wallet",
      "outputs": [
        {
          "name": "",
          "type": "address"
        }
      ],
      "payable": false,
      "stateMutability": "view",
      "type": "function"
    },
    {
      "constant": true,
      "inputs": [],
      "name": "refundOn",
      "outputs": [
        {
          "name": "",
          "type": "bool"
        }
      ],
      "payable": false,
      "stateMutability": "view",
      "type": "function"
    },
    {
      "constant": false,
      "inputs": [],
      "name": "refund",
      "outputs": [],
      "payable": false,
      "stateMutability": "nonpayable",
      "type": "function"
    },
    {
      "constant": false,
      "inputs": [
        {
          "name": "to",
          "type": "address"
        },
        {
          "name": "anotherToken",
          "type": "address"
        }
      ],
      "name": "retrieveTokens",
      "outputs": [],
      "payable": false,
      "stateMutability": "nonpayable",
      "type": "function"
    },
    {
      "constant": true,
      "inputs": [],
      "name": "devFeePaid",
      "outputs": [
        {
          "name": "",
          "type": "bool"
        }
      ],
      "payable": false,
      "stateMutability": "view",
      "type": "function"
    },
    {
      "constant": true,
      "inputs": [],
      "name": "directMintAgent",
      "outputs": [
        {
          "name": "",
          "type": "address"
        }
      ],
      "payable": false,
      "stateMutability": "view",
      "type": "function"
    },
    {
      "constant": false,
      "inputs": [
        {
          "name": "amount",
          "type": "uint256"
        },
        {
          "name": "to",
          "type": "address[]"
        }
      ],
      "name": "mintTokensBatch",
      "outputs": [],
      "payable": false,
      "stateMutability": "nonpayable",
      "type": "function"
    },
    {
      "constant": false,
      "inputs": [],
      "name": "renounceOwnership",
      "outputs": [],
      "payable": false,
      "stateMutability": "nonpayable",
      "type": "function"
    },
    {
      "constant": false,
      "inputs": [
        {
          "name": "newDirectMintAgent",
          "type": "address"
        }
      ],
      "name": "setDirectMintAgent",
      "outputs": [],
      "payable": false,
      "stateMutability": "nonpayable",
      "type": "function"
    },
    {
      "constant": true,
      "inputs": [],
      "name": "percentRate",
      "outputs": [
        {
          "name": "",
          "type": "uint256"
        }
      ],
      "payable": false,
      "stateMutability": "view",
      "type": "function"
    },
    {
      "constant": true,
      "inputs": [],
      "name": "softcapAchieved",
      "outputs": [
        {
          "name": "",
          "type": "bool"
        }
      ],
      "payable": false,
      "stateMutability": "view",
      "type": "function"
    },
    {
      "constant": true,
      "inputs": [],
      "name": "owner",
      "outputs": [
        {
          "name": "",
          "type": "address"
        }
      ],
      "payable": false,
      "stateMutability": "view",
      "type": "function"
    },
    {
      "constant": true,
      "inputs": [],
      "name": "devWallet",
      "outputs": [
        {
          "name": "",
          "type": "address"
        }
      ],
      "payable": false,
      "stateMutability": "view",
      "type": "function"
    },
    {
      "constant": true,
      "inputs": [],
      "name": "devLimit",
      "outputs": [
        {
          "name": "",
          "type": "uint256"
        }
      ],
      "payable": false,
      "stateMutability": "view",
      "type": "function"
    },
    {
      "constant": false,
      "inputs": [
        {
          "name": "newPrice",
          "type": "uint256"
        }
      ],
      "name": "setPrice",
      "outputs": [],
      "payable": false,
      "stateMutability": "nonpayable",
      "type": "function"
    },
    {
      "constant": false,
      "inputs": [
        {
          "name": "to",
          "type": "address"
        },
        {
          "name": "tokens",
          "type": "uint256"
        }
      ],
      "name": "mintTokensExternal",
      "outputs": [],
      "payable": false,
      "stateMutability": "nonpayable",
      "type": "function"
    },
    {
      "constant": true,
      "inputs": [],
      "name": "price",
      "outputs": [
        {
          "name": "",
          "type": "uint256"
        }
      ],
      "payable": false,
      "stateMutability": "view",
      "type": "function"
    },
    {
      "constant": false,
      "inputs": [
        {
          "name": "newMinInvestedLimit",
          "type": "uint256"
        }
      ],
      "name": "setMinInvestedLimit",
      "outputs": [],
      "payable": false,
      "stateMutability": "nonpayable",
      "type": "function"
    },
    {
      "constant": true,
      "inputs": [],
      "name": "hardcap",
      "outputs": [
        {
          "name": "",
          "type": "uint256"
        }
      ],
      "payable": false,
      "stateMutability": "view",
      "type": "function"
    },
    {
      "constant": true,
      "inputs": [],
      "name": "start",
      "outputs": [
        {
          "name": "",
          "type": "uint256"
        }
      ],
      "payable": false,
      "stateMutability": "view",
      "type": "function"
    },
    {
      "constant": true,
      "inputs": [],
      "name": "lockAfterManuallyMint",
      "outputs": [
        {
          "name": "",
          "type": "bool"
        }
      ],
      "payable": false,
      "stateMutability": "view",
      "type": "function"
    },
    {
      "constant": false,
      "inputs": [
        {
          "name": "to",
          "type": "address"
        },
        {
          "name": "_invested",
          "type": "uint256"
        }
      ],
      "name": "mintTokensByETHExternal",
      "outputs": [],
      "payable": false,
      "stateMutability": "nonpayable",
      "type": "function"
    },
    {
      "constant": true,
      "inputs": [],
      "name": "invested",
      "outputs": [
        {
          "name": "",
          "type": "uint256"
        }
      ],
      "payable": false,
      "stateMutability": "view",
      "type": "function"
    },
    {
      "constant": true,
      "inputs": [],
      "name": "minInvestedLimit",
      "outputs": [
        {
          "name": "",
          "type": "uint256"
        }
      ],
      "payable": false,
      "stateMutability": "view",
      "type": "function"
    },
    {
      "constant": true,
      "inputs": [],
      "name": "nextSaleAgent",
      "outputs": [
        {
          "name": "",
          "type": "address"
        }
      ],
      "payable": false,
      "stateMutability": "view",
      "type": "function"
    },
    {
      "constant": false,
      "inputs": [
        {
          "name": "newWallet",
          "type": "address"
        }
      ],
      "name": "setWallet",
      "outputs": [],
      "payable": false,
      "stateMutability": "nonpayable",
      "type": "function"
    },
    {
      "constant": false,
      "inputs": [
        {
          "name": "newHardcap",
          "type": "uint256"
        }
      ],
      "name": "setHardcap",
      "outputs": [],
      "payable": false,
      "stateMutability": "nonpayable",
      "type": "function"
    },
    {
      "constant": false,
      "inputs": [
        {
          "name": "newNextSaleAgent",
          "type": "address"
        }
      ],
      "name": "setNextSaleAgent",
      "outputs": [],
      "payable": false,
      "stateMutability": "nonpayable",
      "type": "function"
    },
    {
      "constant": false,
      "inputs": [
        {
          "name": "newLockAfterManuallyMint",
          "type": "bool"
        }
      ],
      "name": "setLockAfterManuallyMint",
      "outputs": [],
      "payable": false,
      "stateMutability": "nonpayable",
      "type": "function"
    },
    {
      "constant": true,
      "inputs": [],
      "name": "period",
      "outputs": [
        {
          "name": "",
          "type": "uint256"
        }
      ],
      "payable": false,
      "stateMutability": "view",
      "type": "function"
    },
    {
      "constant": false,
      "inputs": [
        {
          "name": "_newOwner",
          "type": "address"
        }
      ],
      "name": "transferOwnership",
      "outputs": [],
      "payable": false,
      "stateMutability": "nonpayable",
      "type": "function"
    },
    {
      "constant": false,
      "inputs": [
        {
          "name": "newStart",
          "type": "uint256"
        }
      ],
      "name": "setStart",
      "outputs": [],
      "payable": false,
      "stateMutability": "nonpayable",
      "type": "function"
    },
    {
      "constant": true,
      "inputs": [],
      "name": "softcap",
      "outputs": [
        {
          "name": "",
          "type": "uint256"
        }
      ],
      "payable": false,
      "stateMutability": "view",
      "type": "function"
    },
    {
      "constant": true,
      "inputs": [],
      "name": "token",
      "outputs": [
        {
          "name": "",
          "type": "address"
        }
      ],
      "payable": false,
      "stateMutability": "view",
      "type": "function"
    },
    {
      "payable": true,
      "stateMutability": "payable",
      "type": "fallback"
    },
    {
      "anonymous": false,
      "inputs": [
        {
          "indexed": true,
          "name": "previousOwner",
          "type": "address"
        }
      ],
      "name": "OwnershipRenounced",
      "type": "event"
    },
    {
      "anonymous": false,
      "inputs": [
        {
          "indexed": true,
          "name": "previousOwner",
          "type": "address"
        },
        {
          "indexed": true,
          "name": "newOwner",
          "type": "address"
        }
      ],
      "name": "OwnershipTransferred",
      "type": "event"
    },
    {
      "constant": false,
      "inputs": [
        {
          "name": "newPeriod",
          "type": "uint256"
        }
      ],
      "name": "setPeriod",
      "outputs": [],
      "payable": false,
      "stateMutability": "nonpayable",
      "type": "function"
    },
    {
      "constant": true,
      "inputs": [],
      "name": "endSaleDate",
      "outputs": [
        {
          "name": "",
          "type": "uint256"
        }
      ],
      "payable": false,
      "stateMutability": "view",
      "type": "function"
    },
    {
      "constant": false,
      "inputs": [],
      "name": "finish",
      "outputs": [],
      "payable": false,
      "stateMutability": "nonpayable",
      "type": "function"
    }
  ],
  "bytecode": "0x608060405260646008556010805460ff1916600117905560008054600160a060020a0319163317905561123e806100376000396000f3006080604052600436106101ea5763ffffffff60e060020a6000350416630f3a9f6581146101f5578063101e5a321461020f578063144fa6d71461022757806327e235e3146102485780633ccfd60b1461027b578063480b890d14610290578063521eb273146102a8578063562605f1146102d9578063590e1ae3146103025780636341ca0b1461031757806368f5ccdf1461033e5780636abc3fe4146103535780636d6908bd14610368578063715018a6146103c2578063769ffb7d146103d75780638090114f146103f8578063836880d31461040d5780638da5cb5b146104225780638ea5220f1461043757806390525c051461044c57806391b7f5ed146104615780639bf6eb6014610479578063a035b1fe1461049d578063a34d9270146104b2578063b071cbe6146104ca578063be9a6555146104df578063c1aa721d146104f4578063ca1e5bb714610509578063cafb22021461052d578063d56b288914610542578063d64196f814610557578063d7d880431461056c578063de38460b14610581578063deaa59df14610596578063e28fa27d146105b7578063e4deb007146105cf578063ea3342e8146105f0578063ef78d4fd1461060a578063f2fde38b1461061f578063f6a03ebf14610640578063f89be59314610658578063fc0c546a1461066d575b6101f2610682565b50005b34801561020157600080fd5b5061020d6004356106d2565b005b34801561021b57600080fd5b5061020d6004356106ee565b34801561023357600080fd5b5061020d600160a060020a036004351661070a565b34801561025457600080fd5b50610269600160a060020a0360043516610750565b60408051918252519081900360200190f35b34801561028757600080fd5b5061020d610762565b34801561029c57600080fd5b5061020d600435610847565b3480156102b457600080fd5b506102bd610863565b60408051600160a060020a039092168252519081900360200190f35b3480156102e557600080fd5b506102ee610872565b604080519115158252519081900360200190f35b34801561030e57600080fd5b5061020d610880565b34801561032357600080fd5b5061020d600160a060020a03600435811690602435166108f8565b34801561034a57600080fd5b506102ee610a28565b34801561035f57600080fd5b506102bd610a31565b34801561037457600080fd5b5060408051602060046024803582810135848102808701860190975280865261020d96843596369660449591949091019291829185019084908082843750949750610a409650505050505050565b3480156103ce57600080fd5b5061020d610b1e565b3480156103e357600080fd5b5061020d600160a060020a0360043516610b8a565b34801561040457600080fd5b50610269610bd0565b34801561041957600080fd5b506102ee610bd6565b34801561042e57600080fd5b506102bd610bdf565b34801561044357600080fd5b506102bd610bee565b34801561045857600080fd5b50610269610c06565b34801561046d57600080fd5b5061020d600435610c13565b34801561048557600080fd5b5061020d600160a060020a0360043516602435610c2f565b3480156104a957600080fd5b50610269610c67565b3480156104be57600080fd5b5061020d600435610c6d565b3480156104d657600080fd5b50610269610c89565b3480156104eb57600080fd5b50610269610c8f565b34801561050057600080fd5b506102ee610c95565b34801561051557600080fd5b5061020d600160a060020a0360043516602435610c9e565b34801561053957600080fd5b50610269610cdf565b34801561054e57600080fd5b5061020d610ce5565b34801561056357600080fd5b50610269610e1b565b34801561057857600080fd5b50610269610e21565b34801561058d57600080fd5b506102bd610e44565b3480156105a257600080fd5b5061020d600160a060020a0360043516610e53565b3480156105c357600080fd5b5061020d600435610e99565b3480156105db57600080fd5b5061020d600160a060020a0360043516610eb5565b3480156105fc57600080fd5b5061020d6004351515610efb565b34801561061657600080fd5b50610269610f25565b34801561062b57600080fd5b5061020d600160a060020a0360043516610f2b565b34801561064c57600080fd5b5061020d600435610f4b565b34801561066457600080fd5b50610269610f67565b34801561067957600080fd5b506102bd610f6d565b600034600d54811015151561069657600080fd5b600c5442101580156106ae57506106ab610e21565b42105b15156106b957600080fd5b6106c234610f7c565b6106cc3334610f95565b91505090565b600054600160a060020a031633146106e957600080fd5b601155565b600054600160a060020a0316331461070557600080fd5b600655565b600054600160a060020a0316331461072157600080fd5b600e805473ffffffffffffffffffffffffffffffffffffffff1916600160a060020a0392909216919091179055565b60046020526000908152604090205481565b600054600160a060020a031633148061078e57503373ea15adb66dc92a4bbccc8bf32fd25e2e86a2a770145b151561079957600080fd5b60055460ff1615156107aa57600080fd5b60075460ff16151561080a5760405173ea15adb66dc92a4bbccc8bf32fd25e2e86a2a77090600090680138400eca364a00009082818181858883f193505050501580156107fb573d6000803e3d6000fd5b506007805460ff191660011790555b600354604051600160a060020a0390911690303180156108fc02916000818181858888f19350505050158015610844573d6000803e3d6000fd5b50565b600054600160a060020a0316331461085e57600080fd5b600855565b600354600160a060020a031681565b600554610100900460ff1681565b600554600090610100900460ff1680156108a7575033600090815260046020526040812054115b15156108b257600080fd5b5033600081815260046020526040808220805490839055905190929183156108fc02918491818181858888f193505050501580156108f4573d6000803e3d6000fd5b5050565b60008054600160a060020a0316331461091057600080fd5b50604080517f70a0823100000000000000000000000000000000000000000000000000000000815230600482015290518291600160a060020a0383169163a9059cbb91869184916370a082319160248083019260209291908290030181600087803b15801561097e57600080fd5b505af1158015610992573d6000803e3d6000fd5b505050506040513d60208110156109a857600080fd5b50516040805160e060020a63ffffffff8616028152600160a060020a03909316600484015260248301919091525160448083019260209291908290030181600087803b1580156109f757600080fd5b505af1158015610a0b573d6000803e3d6000fd5b505050506040513d6020811015610a2157600080fd5b5050505050565b60075460ff1681565b600a54600160a060020a031681565b60008054600160a060020a03163314610a5857600080fd5b5060005b8151811015610b19576009548251600160a060020a03909116906340c10f1990849084908110610a8857fe5b90602001906020020151856040518363ffffffff1660e060020a0281526004018083600160a060020a0316600160a060020a0316815260200182815260200192505050602060405180830381600087803b158015610ae557600080fd5b505af1158015610af9573d6000803e3d6000fd5b505050506040513d6020811015610b0f57600080fd5b5050600101610a5c565b505050565b600054600160a060020a03163314610b3557600080fd5b60008054604051600160a060020a03909116917ff8df31144d9c2f0f6b59d69b8b98abd5459d07f2742c4df920b25aae33c6482091a26000805473ffffffffffffffffffffffffffffffffffffffff19169055565b600054600160a060020a03163314610ba157600080fd5b600a805473ffffffffffffffffffffffffffffffffffffffff1916600160a060020a0392909216919091179055565b60085481565b60055460ff1681565b600054600160a060020a031681565b73ea15adb66dc92a4bbccc8bf32fd25e2e86a2a77081565b680138400eca364a000081565b600054600160a060020a03163314610c2a57600080fd5b600b55565b600a54600160a060020a0316331480610c525750600054600160a060020a031633145b1515610c5d57600080fd5b6108f48282610fb5565b600b5481565b600054600160a060020a03163314610c8457600080fd5b600d55565b600f5481565b600c5481565b60105460ff1681565b600a54600160a060020a0316331480610cc15750600054600160a060020a031633145b1515610ccc57600080fd5b610cd581610f7c565b610b198282610f95565b60025481565b600054600160a060020a03163314610cfc57600080fd5b610d0461104e565b15610d8e57600e60009054906101000a9004600160a060020a0316600160a060020a0316637d64bcb46040518163ffffffff1660e060020a028152600401602060405180830381600087803b158015610d5c57600080fd5b505af1158015610d70573d6000803e3d6000fd5b505050506040513d6020811015610d8657600080fd5b50610e199050565b610d96610762565b600e54600154604080517f14133a7c000000000000000000000000000000000000000000000000000000008152600160a060020a039283166004820152905191909216916314133a7c91602480830192600092919082900301818387803b158015610e0057600080fd5b505af1158015610e14573d6000803e3d6000fd5b505050505b565b600d5481565b6000610e3f6011546201518002600c5461107c90919063ffffffff16565b905090565b600154600160a060020a031681565b600054600160a060020a03163314610e6a57600080fd5b6003805473ffffffffffffffffffffffffffffffffffffffff1916600160a060020a0392909216919091179055565b600054600160a060020a03163314610eb057600080fd5b600f55565b600054600160a060020a03163314610ecc57600080fd5b6001805473ffffffffffffffffffffffffffffffffffffffff1916600160a060020a0392909216919091179055565b600054600160a060020a03163314610f1257600080fd5b6010805460ff1916911515919091179055565b60115481565b600054600160a060020a03163314610f4257600080fd5b6108448161108f565b600054600160a060020a03163314610f6257600080fd5b600c55565b60065481565b600e54600160a060020a031681565b600254610f8f908263ffffffff61107c16565b60025550565b600080610fa2848461110c565b9050610fae8484611136565b9392505050565b600954604080517f40c10f19000000000000000000000000000000000000000000000000000000008152600160a060020a03858116600483015260248201859052915191909216916340c10f199160448083019260209291908290030181600087803b15801561102457600080fd5b505af1158015611038573d6000803e3d6000fd5b505050506040513d6020811015610e1457600080fd5b60055460009060ff16151561106d576005805461ff0019166101001790555b50600554610100900460ff1690565b8181018281101561108957fe5b92915050565b600160a060020a03811615156110a457600080fd5b60008054604051600160a060020a03808516939216917f8be0079c531659141344cd1fd0a4f28419497f9722a3daafe3b4186f6b6457e091a36000805473ffffffffffffffffffffffffffffffffffffffff1916600160a060020a0392909216919091179055565b600080600f5460025410151561112157600080fd5b61112a836111a5565b9050610fae8482610fb5565b600160a060020a03821660009081526004602052604090205461115f908263ffffffff61107c16565b600160a060020a03831660009081526004602052604090205560055460ff1615801561118f575060065460025410155b156108f4576005805460ff191660011790555050565b6000611089670de0b6b3a76400006111c8600b54856111d490919063ffffffff16565b9063ffffffff6111fd16565b60008215156111e557506000611089565b508181028183828115156111f557fe5b041461108957fe5b6000818381151561120a57fe5b0493925050505600a165627a7a7230582022934d36d36276a3ccc260246f4465666f30ff371096eb98f0c38ade9c892abc0029",
  "source": "pragma solidity ^0.4.18;\n\nimport './AssembledCommonSale.sol';\nimport './SoftcapFeature.sol';\nimport './NextSaleAgentFeature.sol';\n\ncontract PreITO is NextSaleAgentFeature, SoftcapFeature, AssembledCommonSale {\n\n  uint public period;\n\n  function calculateTokens(uint _invested) internal returns(uint) {\n    return _invested.mul(price).div(1 ether);\n  }\n\n  function setPeriod(uint newPeriod) public onlyOwner {\n    period = newPeriod;\n  }\n\n  function endSaleDate() public view returns(uint) {\n    return start.add(period * 1 days);\n  }\n  \n  function mintTokensByETH(address to, uint _invested) internal returns(uint) {\n    uint _tokens = super.mintTokensByETH(to, _invested);\n    updateBalance(to, _invested);\n    return _tokens;\n  }\n\n  function finish() public onlyOwner {\n    if (updateRefundState()) {\n      token.finishMinting();\n    } else {\n      withdraw();\n      token.setSaleAgent(nextSaleAgent);\n    }\n  }\n\n  function fallback() internal minInvestLimited(msg.value) returns(uint) {\n    require(now >= start && now < endSaleDate());\n    updateInvested(msg.value);\n    return mintTokensByETH(msg.sender, msg.value);\n  }\n\n}\n",
  "sourcePath": "/home/iceberg/projects/FRS/contracts/PreITO.sol",
  "compiler": {
    "name": "solc",
    "version": "0.4.24+commit.e67f0147.Emscripten.clang"
  },
  "schemaVersion": "2.0.1",
  "updatedAt": "2018-07-05T16:53:10.538Z"
}