{
  "contractName": "RetrieveTokensFeature",
  "abi": [
    {
      "constant": false,
      "inputs": [],
      "name": "renounceOwnership",
      "outputs": [],
      "payable": false,
      "stateMutability": "nonpayable",
      "type": "function"
    },
    {
      "constant": true,
      "inputs": [],
      "name": "owner",
      "outputs": [
        {
          "name": "",
          "type": "address"
        }
      ],
      "payable": false,
      "stateMutability": "view",
      "type": "function"
    },
    {
      "constant": false,
      "inputs": [
        {
          "name": "_newOwner",
          "type": "address"
        }
      ],
      "name": "transferOwnership",
      "outputs": [],
      "payable": false,
      "stateMutability": "nonpayable",
      "type": "function"
    },
    {
      "anonymous": false,
      "inputs": [
        {
          "indexed": true,
          "name": "previousOwner",
          "type": "address"
        }
      ],
      "name": "OwnershipRenounced",
      "type": "event"
    },
    {
      "anonymous": false,
      "inputs": [
        {
          "indexed": true,
          "name": "previousOwner",
          "type": "address"
        },
        {
          "indexed": true,
          "name": "newOwner",
          "type": "address"
        }
      ],
      "name": "OwnershipTransferred",
      "type": "event"
    },
    {
      "constant": false,
      "inputs": [
        {
          "name": "to",
          "type": "address"
        },
        {
          "name": "anotherToken",
          "type": "address"
        }
      ],
      "name": "retrieveTokens",
      "outputs": [],
      "payable": false,
      "stateMutability": "nonpayable",
      "type": "function"
    }
  ],
  "bytecode": "0x608060405260008054600160a060020a03191633179055610386806100256000396000f3006080604052600436106100615763ffffffff7c01000000000000000000000000000000000000000000000000000000006000350416636341ca0b8114610066578063715018a61461008f5780638da5cb5b146100a4578063f2fde38b146100d5575b600080fd5b34801561007257600080fd5b5061008d600160a060020a03600435811690602435166100f6565b005b34801561009b57600080fd5b5061008d61023f565b3480156100b057600080fd5b506100b96102ab565b60408051600160a060020a039092168252519081900360200190f35b3480156100e157600080fd5b5061008d600160a060020a03600435166102ba565b60008054600160a060020a0316331461010e57600080fd5b50604080517f70a0823100000000000000000000000000000000000000000000000000000000815230600482015290518291600160a060020a0383169163a9059cbb91869184916370a082319160248083019260209291908290030181600087803b15801561017c57600080fd5b505af1158015610190573d6000803e3d6000fd5b505050506040513d60208110156101a657600080fd5b5051604080517c010000000000000000000000000000000000000000000000000000000063ffffffff8616028152600160a060020a03909316600484015260248301919091525160448083019260209291908290030181600087803b15801561020e57600080fd5b505af1158015610222573d6000803e3d6000fd5b505050506040513d602081101561023857600080fd5b5050505050565b600054600160a060020a0316331461025657600080fd5b60008054604051600160a060020a03909116917ff8df31144d9c2f0f6b59d69b8b98abd5459d07f2742c4df920b25aae33c6482091a26000805473ffffffffffffffffffffffffffffffffffffffff19169055565b600054600160a060020a031681565b600054600160a060020a031633146102d157600080fd5b6102da816102dd565b50565b600160a060020a03811615156102f257600080fd5b60008054604051600160a060020a03808516939216917f8be0079c531659141344cd1fd0a4f28419497f9722a3daafe3b4186f6b6457e091a36000805473ffffffffffffffffffffffffffffffffffffffff1916600160a060020a03929092169190911790555600a165627a7a7230582032ae794f177b9fda0ac48bd99eee87cb436dd20b756b3ab84b5d3629617097550029",
  "source": "pragma solidity ^0.4.24;\n\nimport './ownership/Ownable.sol';\nimport './token/ERC20.sol';\n\ncontract RetrieveTokensFeature is Ownable {\n\n  function retrieveTokens(address to, address anotherToken) public onlyOwner {\n    ERC20 alienToken = ERC20(anotherToken);\n    alienToken.transfer(to, alienToken.balanceOf(this));\n  }\n\n}\n",
  "sourcePath": "/home/iceberg/projects/FRS/contracts/RetrieveTokensFeature.sol",
  "compiler": {
    "name": "solc",
    "version": "0.4.24+commit.e67f0147.Emscripten.clang"
  },
  "schemaVersion": "2.0.1",
  "updatedAt": "2018-07-05T16:53:10.537Z"
}