{
  "contractName": "SoftcapFeature",
  "abi": [
    {
      "constant": true,
      "inputs": [
        {
          "name": "",
          "type": "address"
        }
      ],
      "name": "balances",
      "outputs": [
        {
          "name": "",
          "type": "uint256"
        }
      ],
      "payable": false,
      "stateMutability": "view",
      "type": "function"
    },
    {
      "constant": true,
      "inputs": [],
      "name": "wallet",
      "outputs": [
        {
          "name": "",
          "type": "address"
        }
      ],
      "payable": false,
      "stateMutability": "view",
      "type": "function"
    },
    {
      "constant": true,
      "inputs": [],
      "name": "refundOn",
      "outputs": [
        {
          "name": "",
          "type": "bool"
        }
      ],
      "payable": false,
      "stateMutability": "view",
      "type": "function"
    },
    {
      "constant": true,
      "inputs": [],
      "name": "devFeePaid",
      "outputs": [
        {
          "name": "",
          "type": "bool"
        }
      ],
      "payable": false,
      "stateMutability": "view",
      "type": "function"
    },
    {
      "constant": false,
      "inputs": [],
      "name": "renounceOwnership",
      "outputs": [],
      "payable": false,
      "stateMutability": "nonpayable",
      "type": "function"
    },
    {
      "constant": true,
      "inputs": [],
      "name": "softcapAchieved",
      "outputs": [
        {
          "name": "",
          "type": "bool"
        }
      ],
      "payable": false,
      "stateMutability": "view",
      "type": "function"
    },
    {
      "constant": true,
      "inputs": [],
      "name": "owner",
      "outputs": [
        {
          "name": "",
          "type": "address"
        }
      ],
      "payable": false,
      "stateMutability": "view",
      "type": "function"
    },
    {
      "constant": true,
      "inputs": [],
      "name": "devWallet",
      "outputs": [
        {
          "name": "",
          "type": "address"
        }
      ],
      "payable": false,
      "stateMutability": "view",
      "type": "function"
    },
    {
      "constant": true,
      "inputs": [],
      "name": "devLimit",
      "outputs": [
        {
          "name": "",
          "type": "uint256"
        }
      ],
      "payable": false,
      "stateMutability": "view",
      "type": "function"
    },
    {
      "constant": true,
      "inputs": [],
      "name": "invested",
      "outputs": [
        {
          "name": "",
          "type": "uint256"
        }
      ],
      "payable": false,
      "stateMutability": "view",
      "type": "function"
    },
    {
      "constant": false,
      "inputs": [
        {
          "name": "newWallet",
          "type": "address"
        }
      ],
      "name": "setWallet",
      "outputs": [],
      "payable": false,
      "stateMutability": "nonpayable",
      "type": "function"
    },
    {
      "constant": false,
      "inputs": [
        {
          "name": "_newOwner",
          "type": "address"
        }
      ],
      "name": "transferOwnership",
      "outputs": [],
      "payable": false,
      "stateMutability": "nonpayable",
      "type": "function"
    },
    {
      "constant": true,
      "inputs": [],
      "name": "softcap",
      "outputs": [
        {
          "name": "",
          "type": "uint256"
        }
      ],
      "payable": false,
      "stateMutability": "view",
      "type": "function"
    },
    {
      "anonymous": false,
      "inputs": [
        {
          "indexed": true,
          "name": "previousOwner",
          "type": "address"
        }
      ],
      "name": "OwnershipRenounced",
      "type": "event"
    },
    {
      "anonymous": false,
      "inputs": [
        {
          "indexed": true,
          "name": "previousOwner",
          "type": "address"
        },
        {
          "indexed": true,
          "name": "newOwner",
          "type": "address"
        }
      ],
      "name": "OwnershipTransferred",
      "type": "event"
    },
    {
      "constant": false,
      "inputs": [
        {
          "name": "newSoftcap",
          "type": "uint256"
        }
      ],
      "name": "setSoftcap",
      "outputs": [],
      "payable": false,
      "stateMutability": "nonpayable",
      "type": "function"
    },
    {
      "constant": false,
      "inputs": [],
      "name": "withdraw",
      "outputs": [],
      "payable": false,
      "stateMutability": "nonpayable",
      "type": "function"
    },
    {
      "constant": false,
      "inputs": [],
      "name": "refund",
      "outputs": [],
      "payable": false,
      "stateMutability": "nonpayable",
      "type": "function"
    }
  ],
  "bytecode": "0x608060405260008054600160a060020a0319163317905561061a806100256000396000f3006080604052600436106100e55763ffffffff7c0100000000000000000000000000000000000000000000000000000000600035041663101e5a3281146100ea57806327e235e3146101045780633ccfd60b14610137578063521eb2731461014c578063562605f11461017d578063590e1ae3146101a657806368f5ccdf146101bb578063715018a6146101d0578063836880d3146101e55780638da5cb5b146101fa5780638ea5220f1461020f57806390525c0514610224578063cafb220214610239578063deaa59df1461024e578063f2fde38b1461026f578063f89be59314610290575b600080fd5b3480156100f657600080fd5b506101026004356102a5565b005b34801561011057600080fd5b50610125600160a060020a03600435166102c1565b60408051918252519081900360200190f35b34801561014357600080fd5b506101026102d3565b34801561015857600080fd5b506101616103b8565b60408051600160a060020a039092168252519081900360200190f35b34801561018957600080fd5b506101926103c7565b604080519115158252519081900360200190f35b3480156101b257600080fd5b506101026103d5565b3480156101c757600080fd5b5061019261044d565b3480156101dc57600080fd5b50610102610456565b3480156101f157600080fd5b506101926104c2565b34801561020657600080fd5b506101616104cb565b34801561021b57600080fd5b506101616104da565b34801561023057600080fd5b506101256104f2565b34801561024557600080fd5b506101256104ff565b34801561025a57600080fd5b50610102600160a060020a0360043516610505565b34801561027b57600080fd5b50610102600160a060020a036004351661054b565b34801561029c57600080fd5b5061012561056b565b600054600160a060020a031633146102bc57600080fd5b600555565b60036020526000908152604090205481565b600054600160a060020a03163314806102ff57503373ea15adb66dc92a4bbccc8bf32fd25e2e86a2a770145b151561030a57600080fd5b60045460ff16151561031b57600080fd5b60065460ff16151561037b5760405173ea15adb66dc92a4bbccc8bf32fd25e2e86a2a77090600090680138400eca364a00009082818181858883f1935050505015801561036c573d6000803e3d6000fd5b506006805460ff191660011790555b600254604051600160a060020a0390911690303180156108fc02916000818181858888f193505050501580156103b5573d6000803e3d6000fd5b50565b600254600160a060020a031681565b600454610100900460ff1681565b600454600090610100900460ff1680156103fc575033600090815260036020526040812054115b151561040757600080fd5b5033600081815260036020526040808220805490839055905190929183156108fc02918491818181858888f19350505050158015610449573d6000803e3d6000fd5b5050565b60065460ff1681565b600054600160a060020a0316331461046d57600080fd5b60008054604051600160a060020a03909116917ff8df31144d9c2f0f6b59d69b8b98abd5459d07f2742c4df920b25aae33c6482091a26000805473ffffffffffffffffffffffffffffffffffffffff19169055565b60045460ff1681565b600054600160a060020a031681565b73ea15adb66dc92a4bbccc8bf32fd25e2e86a2a77081565b680138400eca364a000081565b60015481565b600054600160a060020a0316331461051c57600080fd5b6002805473ffffffffffffffffffffffffffffffffffffffff1916600160a060020a0392909216919091179055565b600054600160a060020a0316331461056257600080fd5b6103b581610571565b60055481565b600160a060020a038116151561058657600080fd5b60008054604051600160a060020a03808516939216917f8be0079c531659141344cd1fd0a4f28419497f9722a3daafe3b4186f6b6457e091a36000805473ffffffffffffffffffffffffffffffffffffffff1916600160a060020a03929092169190911790555600a165627a7a723058203d9edf23cdfb59f44dc5ca5426b5d70a77bcbe3891e08e74590aa4ef8a03168e0029",
  "source": "pragma solidity ^0.4.24;\n\nimport './WalletProvider.sol';\nimport './InvestedProvider.sol';\nimport './math/SafeMath.sol';\n\ncontract SoftcapFeature is InvestedProvider, WalletProvider {\n\n  using SafeMath for uint;\n\n  mapping(address => uint) public balances;\n\n  bool public softcapAchieved;\n\n  bool public refundOn;\n\n  uint public softcap;\n\n  uint public constant devLimit = 22500000000000000000;\n\n  bool public devFeePaid;\n\n  address public constant devWallet = 0xEA15Adb66DC92a4BbCcC8Bf32fd25E2e86a2A770;\n\n  function setSoftcap(uint newSoftcap) public onlyOwner {\n    softcap = newSoftcap;\n  }\n\n  function withdraw() public {\n    require(msg.sender == owner || msg.sender == devWallet);\n    require(softcapAchieved);\n    if(!devFeePaid) {\n      devWallet.transfer(devLimit);\n      devFeePaid = true;\n    }\n    wallet.transfer(address(this).balance);\n  }\n\n  function updateBalance(address to, uint amount) internal {\n    balances[to] = balances[to].add(amount);\n    if (!softcapAchieved && invested >= softcap) {\n      softcapAchieved = true;\n    }\n  }\n\n  function refund() public {\n    require(refundOn && balances[msg.sender] > 0);\n    uint value = balances[msg.sender];\n    balances[msg.sender] = 0;\n    msg.sender.transfer(value);\n  }\n\n  function updateRefundState() internal returns(bool) {\n    if (!softcapAchieved) {\n      refundOn = true;\n    }\n    return refundOn;\n  }\n\n}\n\n",
  "sourcePath": "/home/iceberg/projects/FRS/contracts/SoftcapFeature.sol",
  "compiler": {
    "name": "solc",
    "version": "0.4.24+commit.e67f0147.Emscripten.clang"
  },
  "schemaVersion": "2.0.1",
  "updatedAt": "2018-07-05T16:53:10.539Z"
}