{
  "contractName": "StagedCrowdsale",
  "abi": [
    {
      "constant": false,
      "inputs": [],
      "name": "renounceOwnership",
      "outputs": [],
      "payable": false,
      "stateMutability": "nonpayable",
      "type": "function"
    },
    {
      "constant": true,
      "inputs": [],
      "name": "owner",
      "outputs": [
        {
          "name": "",
          "type": "address"
        }
      ],
      "payable": false,
      "stateMutability": "view",
      "type": "function"
    },
    {
      "constant": true,
      "inputs": [],
      "name": "totalPeriod",
      "outputs": [
        {
          "name": "",
          "type": "uint256"
        }
      ],
      "payable": false,
      "stateMutability": "view",
      "type": "function"
    },
    {
      "constant": true,
      "inputs": [
        {
          "name": "",
          "type": "uint256"
        }
      ],
      "name": "milestones",
      "outputs": [
        {
          "name": "period",
          "type": "uint256"
        },
        {
          "name": "bonus",
          "type": "uint256"
        }
      ],
      "payable": false,
      "stateMutability": "view",
      "type": "function"
    },
    {
      "constant": false,
      "inputs": [
        {
          "name": "_newOwner",
          "type": "address"
        }
      ],
      "name": "transferOwnership",
      "outputs": [],
      "payable": false,
      "stateMutability": "nonpayable",
      "type": "function"
    },
    {
      "anonymous": false,
      "inputs": [
        {
          "indexed": true,
          "name": "previousOwner",
          "type": "address"
        }
      ],
      "name": "OwnershipRenounced",
      "type": "event"
    },
    {
      "anonymous": false,
      "inputs": [
        {
          "indexed": true,
          "name": "previousOwner",
          "type": "address"
        },
        {
          "indexed": true,
          "name": "newOwner",
          "type": "address"
        }
      ],
      "name": "OwnershipTransferred",
      "type": "event"
    },
    {
      "constant": true,
      "inputs": [],
      "name": "milestonesCount",
      "outputs": [
        {
          "name": "",
          "type": "uint256"
        }
      ],
      "payable": false,
      "stateMutability": "view",
      "type": "function"
    },
    {
      "constant": false,
      "inputs": [
        {
          "name": "period",
          "type": "uint256"
        },
        {
          "name": "bonus",
          "type": "uint256"
        }
      ],
      "name": "addMilestone",
      "outputs": [],
      "payable": false,
      "stateMutability": "nonpayable",
      "type": "function"
    },
    {
      "constant": false,
      "inputs": [
        {
          "name": "number",
          "type": "uint8"
        }
      ],
      "name": "removeMilestone",
      "outputs": [],
      "payable": false,
      "stateMutability": "nonpayable",
      "type": "function"
    },
    {
      "constant": false,
      "inputs": [
        {
          "name": "number",
          "type": "uint8"
        },
        {
          "name": "period",
          "type": "uint256"
        },
        {
          "name": "bonus",
          "type": "uint256"
        }
      ],
      "name": "changeMilestone",
      "outputs": [],
      "payable": false,
      "stateMutability": "nonpayable",
      "type": "function"
    },
    {
      "constant": false,
      "inputs": [
        {
          "name": "numberAfter",
          "type": "uint8"
        },
        {
          "name": "period",
          "type": "uint256"
        },
        {
          "name": "bonus",
          "type": "uint256"
        }
      ],
      "name": "insertMilestone",
      "outputs": [],
      "payable": false,
      "stateMutability": "nonpayable",
      "type": "function"
    },
    {
      "constant": false,
      "inputs": [],
      "name": "clearMilestones",
      "outputs": [],
      "payable": false,
      "stateMutability": "nonpayable",
      "type": "function"
    },
    {
      "constant": true,
      "inputs": [
        {
          "name": "start",
          "type": "uint256"
        }
      ],
      "name": "lastSaleDate",
      "outputs": [
        {
          "name": "",
          "type": "uint256"
        }
      ],
      "payable": false,
      "stateMutability": "view",
      "type": "function"
    },
    {
      "constant": true,
      "inputs": [
        {
          "name": "start",
          "type": "uint256"
        }
      ],
      "name": "currentMilestone",
      "outputs": [
        {
          "name": "",
          "type": "uint256"
        }
      ],
      "payable": false,
      "stateMutability": "view",
      "type": "function"
    }
  ],
  "bytecode": "0x608060405260008054600160a060020a031916331790556108c8806100256000396000f3006080604052600436106100c45763ffffffff7c01000000000000000000000000000000000000000000000000000000006000350416634c94ac6a81146100c95780635601477b146100e05780636793c8e1146100fb578063715018a6146101255780638da5cb5b1461013a5780639dc905bb1461016b578063aa525c551461018c578063ab36e4a6146101a7578063bd17647f146101bc578063ce14a46e146101dd578063e89e4ed6146101f2578063f2fde38b14610223578063fd83da0914610244575b600080fd5b3480156100d557600080fd5b506100de61025c565b005b3480156100ec57600080fd5b506100de6004356024356102d6565b34801561010757600080fd5b50610113600435610388565b60408051918252519081900360200190f35b34801561013157600080fd5b506100de61041f565b34801561014657600080fd5b5061014f61048b565b60408051600160a060020a039092168252519081900360200190f35b34801561017757600080fd5b506100de60ff6004351660243560443561049a565b34801561019857600080fd5b506100de60ff600435166105a3565b3480156101b357600080fd5b506101136106b2565b3480156101c857600080fd5b506100de60ff600435166024356044356106b9565b3480156101e957600080fd5b50610113610744565b3480156101fe57600080fd5b5061020a60043561074a565b6040805192835260208301919091528051918290030190f35b34801561022f57600080fd5b506100de600160a060020a0360043516610776565b34801561025057600080fd5b50610113600435610799565b60008054600160a060020a0316331461027457600080fd5b60025460001061028357600080fd5b5060005b6002548110156102c057600280548290811061029f57fe5b60009182526020822060029091020181815560019081019190915501610287565b60006102cd600282610847565b50506000600155565b600054600160a060020a031633146102ed57600080fd5b600082116102fa57600080fd5b604080518082019091528281526020810182815260028054600181810183556000839052935191027f405787fa12a823e0f2b7631cc41b3ba8828b3321ca811111fa75cd3aa3bb5ace81019190915590517f405787fa12a823e0f2b7631cc41b3ba8828b3321ca811111fa75cd3aa3bb5acf9091015554610381908363ffffffff6107a516565b6001555050565b600081815b6002548110156100c4578142101580156103cc575060028054829081106103b057fe5b9060005260206000209060020201600001546201518002820142105b156103d957809250610418565b61040e6002828154811015156103eb57fe5b60009182526020909120600290910201548390620151800263ffffffff6107a516565b915060010161038d565b5050919050565b600054600160a060020a0316331461043657600080fd5b60008054604051600160a060020a03909116917ff8df31144d9c2f0f6b59d69b8b98abd5459d07f2742c4df920b25aae33c6482091a26000805473ffffffffffffffffffffffffffffffffffffffff19169055565b600054600160a060020a031681565b60008054600160a060020a031633146104b257600080fd5b60025460ff8516106104c357600080fd5b6001546104d6908463ffffffff6107a516565b600190815560028054916104ec91908301610847565b5050600254600119015b8360ff1681111561055657600280548290811061050f57fe5b906000526020600020906002020160028260010181548110151561052f57fe5b600091825260209091208254600290920201908155600191820154910155600019016104f6565b60408051808201909152838152602081018390526002805460ff600188011690811061057e57fe5b6000918252602091829020835160029092020190815591015160019091015550505050565b600080548190600160a060020a031633146105bd57600080fd5b60025460ff8416106105ce57600080fd5b6002805460ff85169081106105df57fe5b9060005260206000209060020201915061060882600001546001546107b890919063ffffffff16565b6001556002805460ff851690811061061c57fe5b600091825260208220600290910201818155600101555060ff82165b6002546000190181101561069957600280546001830190811061065757fe5b906000526020600020906002020160028281548110151561067457fe5b6000918252602090912082546002909202019081556001918201549082015501610638565b60028054906106ac906000198301610847565b50505050565b6002545b90565b60008054600160a060020a031633146106d157600080fd5b60025460ff8516106106e257600080fd5b6002805460ff86169081106106f357fe5b9060005260206000209060020201905061071c81600001546001546107b890919063ffffffff16565b60019081558382558181018390555461073b908463ffffffff6107a516565b60015550505050565b60015481565b600280548290811061075857fe5b60009182526020909120600290910201805460019091015490915082565b600054600160a060020a0316331461078d57600080fd5b610796816107ca565b50565b60015462015180020190565b818101828110156107b257fe5b92915050565b6000828211156107c457fe5b50900390565b600160a060020a03811615156107df57600080fd5b60008054604051600160a060020a03808516939216917f8be0079c531659141344cd1fd0a4f28419497f9722a3daafe3b4186f6b6457e091a36000805473ffffffffffffffffffffffffffffffffffffffff1916600160a060020a0392909216919091179055565b815481835581811115610873576002028160020283600052602060002091820191016108739190610878565b505050565b6106b691905b80821115610898576000808255600182015560020161087e565b50905600a165627a7a723058205d028ec00aa8a282f133105ce6de428f1513d986889346a35b6740983167a4bf0029",
  "source": "pragma solidity ^0.4.24;\n\nimport './math/SafeMath.sol';\nimport './ownership/Ownable.sol';\n\ncontract StagedCrowdsale is Ownable {\n\n  using SafeMath for uint;\n\n  struct Milestone {\n    uint period;\n    uint bonus;\n  }\n\n  uint public totalPeriod;\n\n  Milestone[] public milestones;\n\n  function milestonesCount() public view returns(uint) {\n    return milestones.length;\n  }\n\n  function addMilestone(uint period, uint bonus) public onlyOwner {\n    require(period > 0);\n    milestones.push(Milestone(period, bonus));\n    totalPeriod = totalPeriod.add(period);\n  }\n\n  function removeMilestone(uint8 number) public onlyOwner {\n    require(number < milestones.length);\n    Milestone storage milestone = milestones[number];\n    totalPeriod = totalPeriod.sub(milestone.period);\n\n    delete milestones[number];\n\n    for (uint i = number; i < milestones.length - 1; i++) {\n      milestones[i] = milestones[i+1];\n    }\n\n    milestones.length--;\n  }\n\n  function changeMilestone(uint8 number, uint period, uint bonus) public onlyOwner {\n    require(number < milestones.length);\n    Milestone storage milestone = milestones[number];\n\n    totalPeriod = totalPeriod.sub(milestone.period);\n\n    milestone.period = period;\n    milestone.bonus = bonus;\n\n    totalPeriod = totalPeriod.add(period);\n  }\n\n  function insertMilestone(uint8 numberAfter, uint period, uint bonus) public onlyOwner {\n    require(numberAfter < milestones.length);\n\n    totalPeriod = totalPeriod.add(period);\n\n    milestones.length++;\n\n    for (uint i = milestones.length - 2; i > numberAfter; i--) {\n      milestones[i + 1] = milestones[i];\n    }\n\n    milestones[numberAfter + 1] = Milestone(period, bonus);\n  }\n\n  function clearMilestones() public onlyOwner {\n    require(milestones.length > 0);\n    for (uint i = 0; i < milestones.length; i++) {\n      delete milestones[i];\n    }\n    milestones.length -= milestones.length;\n    totalPeriod = 0;\n  }\n\n  function lastSaleDate(uint start) public view returns(uint) {\n    return start + totalPeriod * 1 days;\n  }\n\n  function currentMilestone(uint start) public view returns(uint) {\n    uint previousDate = start;\n    for(uint i=0; i < milestones.length; i++) {\n      if(now >= previousDate && now < previousDate + milestones[i].period * 1 days) {\n        return i;\n      }\n      previousDate = previousDate.add(milestones[i].period * 1 days);\n    }\n    revert();\n  }\n\n}\n",
  "sourcePath": "/home/iceberg/projects/FRS/contracts/StagedCrowdsale.sol",
  "compiler": {
    "name": "solc",
    "version": "0.4.24+commit.e67f0147.Emscripten.clang"
  },
  "schemaVersion": "2.0.1",
  "updatedAt": "2018-07-05T16:53:10.546Z"
}