{
  "contractName": "TokenProvider",
  "abi": [
    {
      "constant": false,
      "inputs": [],
      "name": "renounceOwnership",
      "outputs": [],
      "payable": false,
      "stateMutability": "nonpayable",
      "type": "function"
    },
    {
      "constant": true,
      "inputs": [],
      "name": "owner",
      "outputs": [
        {
          "name": "",
          "type": "address"
        }
      ],
      "payable": false,
      "stateMutability": "view",
      "type": "function"
    },
    {
      "constant": false,
      "inputs": [
        {
          "name": "_newOwner",
          "type": "address"
        }
      ],
      "name": "transferOwnership",
      "outputs": [],
      "payable": false,
      "stateMutability": "nonpayable",
      "type": "function"
    },
    {
      "constant": true,
      "inputs": [],
      "name": "token",
      "outputs": [
        {
          "name": "",
          "type": "address"
        }
      ],
      "payable": false,
      "stateMutability": "view",
      "type": "function"
    },
    {
      "anonymous": false,
      "inputs": [
        {
          "indexed": true,
          "name": "previousOwner",
          "type": "address"
        }
      ],
      "name": "OwnershipRenounced",
      "type": "event"
    },
    {
      "anonymous": false,
      "inputs": [
        {
          "indexed": true,
          "name": "previousOwner",
          "type": "address"
        },
        {
          "indexed": true,
          "name": "newOwner",
          "type": "address"
        }
      ],
      "name": "OwnershipTransferred",
      "type": "event"
    },
    {
      "constant": false,
      "inputs": [
        {
          "name": "newToken",
          "type": "address"
        }
      ],
      "name": "setToken",
      "outputs": [],
      "payable": false,
      "stateMutability": "nonpayable",
      "type": "function"
    }
  ],
  "bytecode": "0x608060405260008054600160a060020a031916331790556102ac806100256000396000f30060806040526004361061006c5763ffffffff7c0100000000000000000000000000000000000000000000000000000000600035041663144fa6d78114610071578063715018a6146100945780638da5cb5b146100a9578063f2fde38b146100da578063fc0c546a146100fb575b600080fd5b34801561007d57600080fd5b50610092600160a060020a0360043516610110565b005b3480156100a057600080fd5b50610092610156565b3480156100b557600080fd5b506100be6101c2565b60408051600160a060020a039092168252519081900360200190f35b3480156100e657600080fd5b50610092600160a060020a03600435166101d1565b34801561010757600080fd5b506100be6101f4565b600054600160a060020a0316331461012757600080fd5b6001805473ffffffffffffffffffffffffffffffffffffffff1916600160a060020a0392909216919091179055565b600054600160a060020a0316331461016d57600080fd5b60008054604051600160a060020a03909116917ff8df31144d9c2f0f6b59d69b8b98abd5459d07f2742c4df920b25aae33c6482091a26000805473ffffffffffffffffffffffffffffffffffffffff19169055565b600054600160a060020a031681565b600054600160a060020a031633146101e857600080fd5b6101f181610203565b50565b600154600160a060020a031681565b600160a060020a038116151561021857600080fd5b60008054604051600160a060020a03808516939216917f8be0079c531659141344cd1fd0a4f28419497f9722a3daafe3b4186f6b6457e091a36000805473ffffffffffffffffffffffffffffffffffffffff1916600160a060020a03929092169190911790555600a165627a7a72305820a5c983126ecbbb40e1b61896fef7bf8524b186ae2121e71b5b9eb9d6f931e0be0029",
  "source": "pragma solidity ^0.4.24;\n\nimport './ownership/Ownable.sol';\nimport './MintableToken.sol';\n\ncontract TokenProvider is Ownable {\n\n  MintableToken public token;\n\n  function setToken(address newToken) public onlyOwner {\n    token = MintableToken(newToken);\n  }\n\n}\n\n",
  "sourcePath": "/home/iceberg/projects/FRS/contracts/TokenProvider.sol",
  "compiler": {
    "name": "solc",
    "version": "0.4.24+commit.e67f0147.Emscripten.clang"
  },
  "schemaVersion": "2.0.1",
  "updatedAt": "2018-07-05T16:53:10.542Z"
}