{
  "contractName": "Token",
  "abi": [
    {
      "constant": true,
      "inputs": [],
      "name": "mintingFinished",
      "outputs": [
        {
          "name": "",
          "type": "bool"
        }
      ],
      "payable": false,
      "stateMutability": "view",
      "type": "function"
    },
    {
      "constant": true,
      "inputs": [],
      "name": "name",
      "outputs": [
        {
          "name": "",
          "type": "string"
        }
      ],
      "payable": false,
      "stateMutability": "view",
      "type": "function"
    },
    {
      "constant": false,
      "inputs": [
        {
          "name": "_spender",
          "type": "address"
        },
        {
          "name": "_value",
          "type": "uint256"
        }
      ],
      "name": "approve",
      "outputs": [
        {
          "name": "",
          "type": "bool"
        }
      ],
      "payable": false,
      "stateMutability": "nonpayable",
      "type": "function"
    },
    {
      "constant": false,
      "inputs": [
        {
          "name": "newSaleAgnet",
          "type": "address"
        }
      ],
      "name": "setSaleAgent",
      "outputs": [],
      "payable": false,
      "stateMutability": "nonpayable",
      "type": "function"
    },
    {
      "constant": true,
      "inputs": [],
      "name": "totalSupply",
      "outputs": [
        {
          "name": "",
          "type": "uint256"
        }
      ],
      "payable": false,
      "stateMutability": "view",
      "type": "function"
    },
    {
      "constant": false,
      "inputs": [
        {
          "name": "addressToUnlock",
          "type": "address"
        }
      ],
      "name": "unlockAddressDuringITO",
      "outputs": [],
      "payable": false,
      "stateMutability": "nonpayable",
      "type": "function"
    },
    {
      "constant": true,
      "inputs": [],
      "name": "decimals",
      "outputs": [
        {
          "name": "",
          "type": "uint32"
        }
      ],
      "payable": false,
      "stateMutability": "view",
      "type": "function"
    },
    {
      "constant": false,
      "inputs": [
        {
          "name": "_to",
          "type": "address"
        },
        {
          "name": "_amount",
          "type": "uint256"
        }
      ],
      "name": "mint",
      "outputs": [
        {
          "name": "",
          "type": "bool"
        }
      ],
      "payable": false,
      "stateMutability": "nonpayable",
      "type": "function"
    },
    {
      "constant": false,
      "inputs": [
        {
          "name": "_spender",
          "type": "address"
        },
        {
          "name": "_subtractedValue",
          "type": "uint256"
        }
      ],
      "name": "decreaseApproval",
      "outputs": [
        {
          "name": "",
          "type": "bool"
        }
      ],
      "payable": false,
      "stateMutability": "nonpayable",
      "type": "function"
    },
    {
      "constant": true,
      "inputs": [
        {
          "name": "_owner",
          "type": "address"
        }
      ],
      "name": "balanceOf",
      "outputs": [
        {
          "name": "",
          "type": "uint256"
        }
      ],
      "payable": false,
      "stateMutability": "view",
      "type": "function"
    },
    {
      "constant": false,
      "inputs": [],
      "name": "renounceOwnership",
      "outputs": [],
      "payable": false,
      "stateMutability": "nonpayable",
      "type": "function"
    },
    {
      "constant": false,
      "inputs": [],
      "name": "finishMinting",
      "outputs": [
        {
          "name": "",
          "type": "bool"
        }
      ],
      "payable": false,
      "stateMutability": "nonpayable",
      "type": "function"
    },
    {
      "constant": true,
      "inputs": [],
      "name": "owner",
      "outputs": [
        {
          "name": "",
          "type": "address"
        }
      ],
      "payable": false,
      "stateMutability": "view",
      "type": "function"
    },
    {
      "constant": true,
      "inputs": [
        {
          "name": "",
          "type": "uint256"
        }
      ],
      "name": "tokenHolders",
      "outputs": [
        {
          "name": "",
          "type": "address"
        }
      ],
      "payable": false,
      "stateMutability": "view",
      "type": "function"
    },
    {
      "constant": true,
      "inputs": [],
      "name": "symbol",
      "outputs": [
        {
          "name": "",
          "type": "string"
        }
      ],
      "payable": false,
      "stateMutability": "view",
      "type": "function"
    },
    {
      "constant": true,
      "inputs": [],
      "name": "saleAgent",
      "outputs": [
        {
          "name": "",
          "type": "address"
        }
      ],
      "payable": false,
      "stateMutability": "view",
      "type": "function"
    },
    {
      "constant": false,
      "inputs": [
        {
          "name": "_spender",
          "type": "address"
        },
        {
          "name": "_addedValue",
          "type": "uint256"
        }
      ],
      "name": "increaseApproval",
      "outputs": [
        {
          "name": "",
          "type": "bool"
        }
      ],
      "payable": false,
      "stateMutability": "nonpayable",
      "type": "function"
    },
    {
      "constant": true,
      "inputs": [
        {
          "name": "",
          "type": "address"
        }
      ],
      "name": "unlockedAddressesDuringITO",
      "outputs": [
        {
          "name": "",
          "type": "bool"
        }
      ],
      "payable": false,
      "stateMutability": "view",
      "type": "function"
    },
    {
      "constant": true,
      "inputs": [
        {
          "name": "_owner",
          "type": "address"
        },
        {
          "name": "_spender",
          "type": "address"
        }
      ],
      "name": "allowance",
      "outputs": [
        {
          "name": "",
          "type": "uint256"
        }
      ],
      "payable": false,
      "stateMutability": "view",
      "type": "function"
    },
    {
      "constant": false,
      "inputs": [
        {
          "name": "_newOwner",
          "type": "address"
        }
      ],
      "name": "transferOwnership",
      "outputs": [],
      "payable": false,
      "stateMutability": "nonpayable",
      "type": "function"
    },
    {
      "constant": true,
      "inputs": [
        {
          "name": "",
          "type": "address"
        }
      ],
      "name": "registeredCallbacks",
      "outputs": [
        {
          "name": "",
          "type": "bool"
        }
      ],
      "payable": false,
      "stateMutability": "view",
      "type": "function"
    },
    {
      "anonymous": false,
      "inputs": [
        {
          "indexed": true,
          "name": "to",
          "type": "address"
        },
        {
          "indexed": false,
          "name": "amount",
          "type": "uint256"
        }
      ],
      "name": "Mint",
      "type": "event"
    },
    {
      "anonymous": false,
      "inputs": [],
      "name": "MintFinished",
      "type": "event"
    },
    {
      "anonymous": false,
      "inputs": [
        {
          "indexed": true,
          "name": "previousOwner",
          "type": "address"
        }
      ],
      "name": "OwnershipRenounced",
      "type": "event"
    },
    {
      "anonymous": false,
      "inputs": [
        {
          "indexed": true,
          "name": "previousOwner",
          "type": "address"
        },
        {
          "indexed": true,
          "name": "newOwner",
          "type": "address"
        }
      ],
      "name": "OwnershipTransferred",
      "type": "event"
    },
    {
      "anonymous": false,
      "inputs": [
        {
          "indexed": true,
          "name": "owner",
          "type": "address"
        },
        {
          "indexed": true,
          "name": "spender",
          "type": "address"
        },
        {
          "indexed": false,
          "name": "value",
          "type": "uint256"
        }
      ],
      "name": "Approval",
      "type": "event"
    },
    {
      "anonymous": false,
      "inputs": [
        {
          "indexed": true,
          "name": "from",
          "type": "address"
        },
        {
          "indexed": true,
          "name": "to",
          "type": "address"
        },
        {
          "indexed": false,
          "name": "value",
          "type": "uint256"
        }
      ],
      "name": "Transfer",
      "type": "event"
    },
    {
      "constant": false,
      "inputs": [
        {
          "name": "_to",
          "type": "address"
        },
        {
          "name": "_value",
          "type": "uint256"
        }
      ],
      "name": "transfer",
      "outputs": [
        {
          "name": "",
          "type": "bool"
        }
      ],
      "payable": false,
      "stateMutability": "nonpayable",
      "type": "function"
    },
    {
      "constant": false,
      "inputs": [
        {
          "name": "_from",
          "type": "address"
        },
        {
          "name": "_to",
          "type": "address"
        },
        {
          "name": "_value",
          "type": "uint256"
        }
      ],
      "name": "transferFrom",
      "outputs": [
        {
          "name": "",
          "type": "bool"
        }
      ],
      "payable": false,
      "stateMutability": "nonpayable",
      "type": "function"
    },
    {
      "constant": false,
      "inputs": [
        {
          "name": "callback",
          "type": "address"
        }
      ],
      "name": "registerCallback",
      "outputs": [],
      "payable": false,
      "stateMutability": "nonpayable",
      "type": "function"
    },
    {
      "constant": false,
      "inputs": [
        {
          "name": "callback",
          "type": "address"
        }
      ],
      "name": "deregisterCallback",
      "outputs": [],
      "payable": false,
      "stateMutability": "nonpayable",
      "type": "function"
    }
  ],
  "bytecode": "0x608060405260038054600160a860020a0319163317905561115d806100256000396000f3006080604052600436106101485763ffffffff7c010000000000000000000000000000000000000000000000000000000060003504166305d2035b811461014d57806306fdde0314610176578063095ea7b31461020057806314133a7c1461022457806318160ddd1461024757806323b872dd1461026e5780632e4dde6014610298578063313ce567146102b957806340c10f19146102e75780634c66326d1461030b578063661884631461032c57806370a0823114610350578063715018a6146103715780637d64bcb4146103865780638da5cb5b1461039b578063923108d9146103cc57806395d89b41146103e4578063a9059cbb146103f9578063b1d6a2f01461041d578063cf1b037c14610432578063d73dd62314610453578063db0d7a3814610477578063dd62ed3e14610498578063f2fde38b146104bf578063f308846f146104e0575b600080fd5b34801561015957600080fd5b50610162610501565b604080519115158252519081900360200190f35b34801561018257600080fd5b5061018b610511565b6040805160208082528351818301528351919283929083019185019080838360005b838110156101c55781810151838201526020016101ad565b50505050905090810190601f1680156101f25780820380516001836020036101000a031916815260200191505b509250505060405180910390f35b34801561020c57600080fd5b50610162600160a060020a0360043516602435610548565b34801561023057600080fd5b50610245600160a060020a03600435166105ae565b005b34801561025357600080fd5b5061025c61060b565b60408051918252519081900360200190f35b34801561027a57600080fd5b50610162600160a060020a0360043581169060243516604435610611565b3480156102a457600080fd5b50610245600160a060020a0360043516610631565b3480156102c557600080fd5b506102ce610683565b6040805163ffffffff9092168252519081900360200190f35b3480156102f357600080fd5b50610162600160a060020a0360043516602435610688565b34801561031757600080fd5b50610245600160a060020a0360043516610820565b34801561033857600080fd5b50610162600160a060020a0360043516602435610858565b34801561035c57600080fd5b5061025c600160a060020a0360043516610948565b34801561037d57600080fd5b50610245610963565b34801561039257600080fd5b506101626109d1565b3480156103a757600080fd5b506103b0610a6b565b60408051600160a060020a039092168252519081900360200190f35b3480156103d857600080fd5b506103b0600435610a7a565b3480156103f057600080fd5b5061018b610aa2565b34801561040557600080fd5b50610162600160a060020a0360043516602435610ad9565b34801561042957600080fd5b506103b0610af7565b34801561043e57600080fd5b50610245600160a060020a0360043516610b06565b34801561045f57600080fd5b50610162600160a060020a0360043516602435610b41565b34801561048357600080fd5b50610162600160a060020a0360043516610bda565b3480156104a457600080fd5b5061025c600160a060020a0360043581169060243516610bef565b3480156104cb57600080fd5b50610245600160a060020a0360043516610c1a565b3480156104ec57600080fd5b50610162600160a060020a0360043516610c3d565b60035460a060020a900460ff1681565b60408051808201909152600781527f465253436f696e00000000000000000000000000000000000000000000000000602082015281565b336000818152600260209081526040808320600160a060020a038716808552908352818420869055815186815291519394909390927f8c5be1e5ebec7d5bd14f71427d1e84f3dd0314c0f7b2291e5b200ac8c7c3b925928290030190a350600192915050565b600454600160a060020a03163314806105d15750600354600160a060020a031633145b15156105dc57600080fd5b6004805473ffffffffffffffffffffffffffffffffffffffff1916600160a060020a0392909216919091179055565b60015490565b6000610629610621858585610c52565b858585610ceb565b949350505050565b600454600160a060020a03163314806106545750600354600160a060020a031633145b151561065f57600080fd5b600160a060020a03166000908152600560205260409020805460ff19166001179055565b601281565b600454600090600160a060020a03163314806106ae5750600354600160a060020a031633145b80156106c4575060035460a060020a900460ff16155b15156106cf57600080fd5b600160a060020a038316600090815260208190526040902054151561074757600680546001810182556000919091527ff652222313e28459528d920b65115c16c04f3efc82aaedc97be59f3f377c0d3f01805473ffffffffffffffffffffffffffffffffffffffff1916600160a060020a0385161790555b60015461075a908363ffffffff610da716565b600155600160a060020a038316600090815260208190526040902054610786908363ffffffff610da716565b600160a060020a03841660008181526020818152604091829020939093558051858152905191927f0f6798a560793a54c3bcfe86a93cde1e73087d944c0ea20544137d412139688592918290030190a2604080518381529051600160a060020a038516916000917fddf252ad1be2c89b69c2b068fc378daa952ba7f163c4a11628f55a4df523b3ef9181900360200190a350600192915050565b600354600160a060020a0316331461083757600080fd5b600160a060020a03166000908152600760205260409020805460ff19169055565b336000908152600260209081526040808320600160a060020a0386168452909152812054808311156108ad57336000908152600260209081526040808320600160a060020a03881684529091528120556108e2565b6108bd818463ffffffff610dba16565b336000908152600260209081526040808320600160a060020a03891684529091529020555b336000818152600260209081526040808320600160a060020a0389168085529083529281902054815190815290519293927f8c5be1e5ebec7d5bd14f71427d1e84f3dd0314c0f7b2291e5b200ac8c7c3b925929181900390910190a35060019392505050565b600160a060020a031660009081526020819052604090205490565b600354600160a060020a0316331461097a57600080fd5b600354604051600160a060020a03909116907ff8df31144d9c2f0f6b59d69b8b98abd5459d07f2742c4df920b25aae33c6482090600090a26003805473ffffffffffffffffffffffffffffffffffffffff19169055565b600454600090600160a060020a03163314806109f75750600354600160a060020a031633145b8015610a0d575060035460a060020a900460ff16155b1515610a1857600080fd5b6003805474ff0000000000000000000000000000000000000000191660a060020a1790556040517fae5184fba832cb2b1f702aca6117b8d265eaf03ad33eb133f19dde0f5920fa0890600090a150600190565b600354600160a060020a031681565b6006805482908110610a8857fe5b600091825260209091200154600160a060020a0316905081565b60408051808201909152600381527f4652530000000000000000000000000000000000000000000000000000000000602082015281565b6000610af0610ae88484610dcc565b338585610ceb565b9392505050565b600454600160a060020a031681565b600354600160a060020a03163314610b1d57600080fd5b600160a060020a03166000908152600760205260409020805460ff19166001179055565b336000908152600260209081526040808320600160a060020a0386168452909152812054610b75908363ffffffff610da716565b336000818152600260209081526040808320600160a060020a0389168085529083529281902085905580519485525191937f8c5be1e5ebec7d5bd14f71427d1e84f3dd0314c0f7b2291e5b200ac8c7c3b925929081900390910190a350600192915050565b60056020526000908152604090205460ff1681565b600160a060020a03918216600090815260026020908152604080832093909416825291909152205490565b600354600160a060020a03163314610c3157600080fd5b610c3a81610e5b565b50565b60076020526000908152604090205460ff1681565b600354600090849060a060020a900460ff1680610c7c5750600454600160a060020a038281169116145b80610c945750600354600160a060020a038281169116145b80610ccc575060035460a060020a900460ff16158015610ccc5750600160a060020a03811660009081526005602052604090205460ff165b1515610cd757600080fd5b610ce2858585610ed9565b95945050505050565b600080858015610d135750600160a060020a03841660009081526007602052604090205460ff165b15610d9d5750604080517f3b66d02b000000000000000000000000000000000000000000000000000000008152600160a060020a0386811660048301526024820185905291518592831691633b66d02b91604480830192600092919082900301818387803b158015610d8457600080fd5b505af1158015610d98573d6000803e3d6000fd5b505050505b5093949350505050565b81810182811015610db457fe5b92915050565b600082821115610dc657fe5b50900390565b600354600090339060a060020a900460ff1680610df65750600454600160a060020a038281169116145b80610e0e5750600354600160a060020a038281169116145b80610e46575060035460a060020a900460ff16158015610e465750600160a060020a03811660009081526005602052604090205460ff165b1515610e5157600080fd5b6106298484611050565b600160a060020a0381161515610e7057600080fd5b600354604051600160a060020a038084169216907f8be0079c531659141344cd1fd0a4f28419497f9722a3daafe3b4186f6b6457e090600090a36003805473ffffffffffffffffffffffffffffffffffffffff1916600160a060020a0392909216919091179055565b6000600160a060020a0383161515610ef057600080fd5b600160a060020a038416600090815260208190526040902054821115610f1557600080fd5b600160a060020a0384166000908152600260209081526040808320338452909152902054821115610f4557600080fd5b600160a060020a038416600090815260208190526040902054610f6e908363ffffffff610dba16565b600160a060020a038086166000908152602081905260408082209390935590851681522054610fa3908363ffffffff610da716565b600160a060020a03808516600090815260208181526040808320949094559187168152600282528281203382529091522054610fe5908363ffffffff610dba16565b600160a060020a03808616600081815260026020908152604080832033845282529182902094909455805186815290519287169391927fddf252ad1be2c89b69c2b068fc378daa952ba7f163c4a11628f55a4df523b3ef929181900390910190a35060019392505050565b6000600160a060020a038316151561106757600080fd5b3360009081526020819052604090205482111561108357600080fd5b336000908152602081905260409020546110a3908363ffffffff610dba16565b3360009081526020819052604080822092909255600160a060020a038516815220546110d5908363ffffffff610da716565b600160a060020a038416600081815260208181526040918290209390935580518581529051919233927fddf252ad1be2c89b69c2b068fc378daa952ba7f163c4a11628f55a4df523b3ef9281900390910190a3506001929150505600a165627a7a72305820c359babc18df6c23a199956a0a0459aad7d7e8a5a4e539b7015a3b18c4252d180029",
  "source": "pragma solidity ^0.4.18;\n\nimport './MintableToken.sol';\nimport './ReceivingContractCallback.sol';\n\ncontract Token is MintableToken {\n\n  string public constant name = \"FRSCoin\";\n\n  string public constant symbol = \"FRS\";\n\n  uint32 public constant decimals = 18;\n\n  mapping(address => bool)  public registeredCallbacks;\n\n  function transfer(address _to, uint256 _value) public returns (bool) {\n    return processCallback(super.transfer(_to, _value), msg.sender, _to, _value);\n  }\n\n  function transferFrom(address _from, address _to, uint256 _value) public returns (bool) {\n    return processCallback(super.transferFrom(_from, _to, _value), _from, _to, _value);\n  }\n\n  function registerCallback(address callback) public onlyOwner {\n    registeredCallbacks[callback] = true;\n  }\n\n  function deregisterCallback(address callback) public onlyOwner {\n    registeredCallbacks[callback] = false;\n  }\n\n  function processCallback(bool result, address from, address to, uint value) internal returns(bool) {\n    if (result && registeredCallbacks[to]) {\n      ReceivingContractCallback targetCallback = ReceivingContractCallback(to);\n      targetCallback.tokenFallback(from, value);\n    }\n    return result;\n  }\n\n}\n",
  "sourcePath": "/home/iceberg/projects/FRS/contracts/Token.sol",
  "compiler": {
    "name": "solc",
    "version": "0.4.24+commit.e67f0147.Emscripten.clang"
  },
  "schemaVersion": "2.0.1",
  "updatedAt": "2018-07-05T16:53:10.543Z"
}