{
  "contractName": "WalletsPercents",
  "abi": [
    {
      "constant": false,
      "inputs": [],
      "name": "renounceOwnership",
      "outputs": [],
      "payable": false,
      "stateMutability": "nonpayable",
      "type": "function"
    },
    {
      "constant": true,
      "inputs": [
        {
          "name": "",
          "type": "uint256"
        }
      ],
      "name": "wallets",
      "outputs": [
        {
          "name": "",
          "type": "address"
        }
      ],
      "payable": false,
      "stateMutability": "view",
      "type": "function"
    },
    {
      "constant": true,
      "inputs": [],
      "name": "owner",
      "outputs": [
        {
          "name": "",
          "type": "address"
        }
      ],
      "payable": false,
      "stateMutability": "view",
      "type": "function"
    },
    {
      "constant": false,
      "inputs": [
        {
          "name": "_newOwner",
          "type": "address"
        }
      ],
      "name": "transferOwnership",
      "outputs": [],
      "payable": false,
      "stateMutability": "nonpayable",
      "type": "function"
    },
    {
      "anonymous": false,
      "inputs": [
        {
          "indexed": true,
          "name": "previousOwner",
          "type": "address"
        }
      ],
      "name": "OwnershipRenounced",
      "type": "event"
    },
    {
      "anonymous": false,
      "inputs": [
        {
          "indexed": true,
          "name": "previousOwner",
          "type": "address"
        },
        {
          "indexed": true,
          "name": "newOwner",
          "type": "address"
        }
      ],
      "name": "OwnershipTransferred",
      "type": "event"
    },
    {
      "constant": false,
      "inputs": [
        {
          "name": "wallet",
          "type": "address"
        },
        {
          "name": "percent",
          "type": "uint256"
        }
      ],
      "name": "addWallet",
      "outputs": [],
      "payable": false,
      "stateMutability": "nonpayable",
      "type": "function"
    },
    {
      "constant": false,
      "inputs": [],
      "name": "cleanWallets",
      "outputs": [],
      "payable": false,
      "stateMutability": "nonpayable",
      "type": "function"
    }
  ],
  "bytecode": "0x608060405260008054600160a060020a03191633179055610392806100256000396000f3006080604052600436106100775763ffffffff7c01000000000000000000000000000000000000000000000000000000006000350416630a2a9a01811461007c578063715018a6146100a25780637ad71f72146100b75780638da5cb5b146100eb578063f2fde38b14610100578063fcf4017014610121575b600080fd5b34801561008857600080fd5b506100a0600160a060020a0360043516602435610136565b005b3480156100ae57600080fd5b506100a06101b5565b3480156100c357600080fd5b506100cf600435610221565b60408051600160a060020a039092168252519081900360200190f35b3480156100f757600080fd5b506100cf610249565b34801561010c57600080fd5b506100a0600160a060020a0360043516610258565b34801561012d57600080fd5b506100a061027b565b600054600160a060020a0316331461014d57600080fd5b600180548082019091557fb10e2d527612073b26eecdfd717e6a320cf44b4afac2b0732d9fcbe2b7fa0cf6018054600160a060020a0390931673ffffffffffffffffffffffffffffffffffffffff199093168317905560009182526002602052604090912055565b600054600160a060020a031633146101cc57600080fd5b60008054604051600160a060020a03909116917ff8df31144d9c2f0f6b59d69b8b98abd5459d07f2742c4df920b25aae33c6482091a26000805473ffffffffffffffffffffffffffffffffffffffff19169055565b600180548290811061022f57fe5b600091825260209091200154600160a060020a0316905081565b600054600160a060020a031681565b600054600160a060020a0316331461026f57600080fd5b6102788161029f565b50565b600054600160a060020a0316331461029257600080fd5b600061027860018261031c565b600160a060020a03811615156102b457600080fd5b60008054604051600160a060020a03808516939216917f8be0079c531659141344cd1fd0a4f28419497f9722a3daafe3b4186f6b6457e091a36000805473ffffffffffffffffffffffffffffffffffffffff1916600160a060020a0392909216919091179055565b81548183558181111561034057600083815260209020610340918101908301610345565b505050565b61036391905b8082111561035f576000815560010161034b565b5090565b905600a165627a7a72305820437425eabd9aeea45e4ac55396ee99ee4e52456357874d3ba2ed184cde8089450029",
  "source": "pragma solidity ^0.4.24;\n\nimport './ownership/Ownable.sol';\n\ncontract WalletsPercents is Ownable {\n\n  address[] public wallets;\n\n  mapping (address => uint) percents;\n\n  function addWallet(address wallet, uint percent) public onlyOwner {\n    wallets.push(wallet);\n    percents[wallet] = percent;\n  }\n \n  function cleanWallets() public onlyOwner {\n    wallets.length = 0;\n  }\n\n\n}\n",
  "sourcePath": "/home/iceberg/projects/FRS/contracts/WalletsPercents.sol",
  "compiler": {
    "name": "solc",
    "version": "0.4.24+commit.e67f0147.Emscripten.clang"
  },
  "schemaVersion": "2.0.1",
  "updatedAt": "2018-07-05T16:53:10.542Z"
}